{
  "_format": "hh-sol-artifact-1",
  "contractName": "Report",
  "sourceName": "contracts/Report.sol",
  "abi": [
    {
      "inputs": [],
      "stateMutability": "nonpayable",
      "type": "constructor"
    },
    {
      "anonymous": false,
      "inputs": [
        {
          "indexed": true,
          "internalType": "address",
          "name": "admin",
          "type": "address"
        }
      ],
      "name": "AdminAdded",
      "type": "event"
    },
    {
      "anonymous": false,
      "inputs": [
        {
          "indexed": true,
          "internalType": "address",
          "name": "admin",
          "type": "address"
        }
      ],
      "name": "AdminRemoved",
      "type": "event"
    },
    {
      "anonymous": false,
      "inputs": [
        {
          "indexed": true,
          "internalType": "uint256",
          "name": "reportId",
          "type": "uint256"
        },
        {
          "indexed": false,
          "internalType": "uint256",
          "name": "commentId",
          "type": "uint256"
        },
        {
          "indexed": false,
          "internalType": "address",
          "name": "author",
          "type": "address"
        }
      ],
      "name": "CommentAdded",
      "type": "event"
    },
    {
      "anonymous": false,
      "inputs": [
        {
          "indexed": true,
          "internalType": "uint256",
          "name": "reportId",
          "type": "uint256"
        },
        {
          "indexed": false,
          "internalType": "uint256",
          "name": "commentIndex",
          "type": "uint256"
        }
      ],
      "name": "CommentHidden",
      "type": "event"
    },
    {
      "anonymous": false,
      "inputs": [
        {
          "indexed": true,
          "internalType": "uint256",
          "name": "reportId",
          "type": "uint256"
        },
        {
          "indexed": false,
          "internalType": "uint256",
          "name": "commentIndex",
          "type": "uint256"
        }
      ],
      "name": "CommentUnhidden",
      "type": "event"
    },
    {
      "anonymous": false,
      "inputs": [
        {
          "indexed": true,
          "internalType": "address",
          "name": "donor",
          "type": "address"
        },
        {
          "indexed": false,
          "internalType": "uint256",
          "name": "amount",
          "type": "uint256"
        }
      ],
      "name": "Donated",
      "type": "event"
    },
    {
      "anonymous": false,
      "inputs": [
        {
          "indexed": true,
          "internalType": "uint256",
          "name": "id",
          "type": "uint256"
        },
        {
          "indexed": false,
          "internalType": "bytes32",
          "name": "trackingCode",
          "type": "bytes32"
        },
        {
          "indexed": false,
          "internalType": "address",
          "name": "reporter",
          "type": "address"
        }
      ],
      "name": "ReportSubmitted",
      "type": "event"
    },
    {
      "anonymous": false,
      "inputs": [
        {
          "indexed": true,
          "internalType": "uint256",
          "name": "id",
          "type": "uint256"
        },
        {
          "indexed": false,
          "internalType": "enum Report.ReportStatus",
          "name": "newStatus",
          "type": "uint8"
        }
      ],
      "name": "StatusUpdated",
      "type": "event"
    },
    {
      "inputs": [
        {
          "internalType": "address",
          "name": "_admin",
          "type": "address"
        }
      ],
      "name": "addAdmin",
      "outputs": [],
      "stateMutability": "nonpayable",
      "type": "function"
    },
    {
      "inputs": [
        {
          "internalType": "uint256",
          "name": "_reportId",
          "type": "uint256"
        },
        {
          "internalType": "string",
          "name": "_content",
          "type": "string"
        }
      ],
      "name": "addComment",
      "outputs": [],
      "stateMutability": "nonpayable",
      "type": "function"
    },
    {
      "inputs": [
        {
          "internalType": "address",
          "name": "",
          "type": "address"
        }
      ],
      "name": "admins",
      "outputs": [
        {
          "internalType": "bool",
          "name": "",
          "type": "bool"
        }
      ],
      "stateMutability": "view",
      "type": "function"
    },
    {
      "inputs": [],
      "name": "donate",
      "outputs": [],
      "stateMutability": "payable",
      "type": "function"
    },
    {
      "inputs": [],
      "name": "getAdminList",
      "outputs": [
        {
          "internalType": "address[]",
          "name": "",
          "type": "address[]"
        }
      ],
      "stateMutability": "view",
      "type": "function"
    },
    {
      "inputs": [
        {
          "internalType": "uint256",
          "name": "_reportId",
          "type": "uint256"
        }
      ],
      "name": "getAllComments",
      "outputs": [
        {
          "components": [
            {
              "internalType": "uint256",
              "name": "id",
              "type": "uint256"
            },
            {
              "internalType": "uint256",
              "name": "reportId",
              "type": "uint256"
            },
            {
              "internalType": "address",
              "name": "author",
              "type": "address"
            },
            {
              "internalType": "string",
              "name": "content",
              "type": "string"
            },
            {
              "internalType": "uint256",
              "name": "timestamp",
              "type": "uint256"
            },
            {
              "internalType": "bool",
              "name": "hidden",
              "type": "bool"
            }
          ],
          "internalType": "struct Report.Comment[]",
          "name": "",
          "type": "tuple[]"
        }
      ],
      "stateMutability": "view",
      "type": "function"
    },
    {
      "inputs": [],
      "name": "getAllReports",
      "outputs": [
        {
          "components": [
            {
              "internalType": "uint256",
              "name": "id",
              "type": "uint256"
            },
            {
              "internalType": "address",
              "name": "reporter",
              "type": "address"
            },
            {
              "internalType": "string",
              "name": "ipfsHash",
              "type": "string"
            },
            {
              "internalType": "string",
              "name": "category",
              "type": "string"
            },
            {
              "internalType": "enum Report.ReportStatus",
              "name": "status",
              "type": "uint8"
            },
            {
              "internalType": "uint256",
              "name": "timestamp",
              "type": "uint256"
            },
            {
              "internalType": "bytes32",
              "name": "trackingCode",
              "type": "bytes32"
            }
          ],
          "internalType": "struct Report.ReportData[]",
          "name": "",
          "type": "tuple[]"
        }
      ],
      "stateMutability": "view",
      "type": "function"
    },
    {
      "inputs": [
        {
          "internalType": "uint256",
          "name": "_reportId",
          "type": "uint256"
        }
      ],
      "name": "getComments",
      "outputs": [
        {
          "components": [
            {
              "internalType": "uint256",
              "name": "id",
              "type": "uint256"
            },
            {
              "internalType": "uint256",
              "name": "reportId",
              "type": "uint256"
            },
            {
              "internalType": "address",
              "name": "author",
              "type": "address"
            },
            {
              "internalType": "string",
              "name": "content",
              "type": "string"
            },
            {
              "internalType": "uint256",
              "name": "timestamp",
              "type": "uint256"
            },
            {
              "internalType": "bool",
              "name": "hidden",
              "type": "bool"
            }
          ],
          "internalType": "struct Report.Comment[]",
          "name": "",
          "type": "tuple[]"
        }
      ],
      "stateMutability": "view",
      "type": "function"
    },
    {
      "inputs": [],
      "name": "getPublicReports",
      "outputs": [
        {
          "components": [
            {
              "internalType": "uint256",
              "name": "id",
              "type": "uint256"
            },
            {
              "internalType": "address",
              "name": "reporter",
              "type": "address"
            },
            {
              "internalType": "string",
              "name": "ipfsHash",
              "type": "string"
            },
            {
              "internalType": "string",
              "name": "category",
              "type": "string"
            },
            {
              "internalType": "enum Report.ReportStatus",
              "name": "status",
              "type": "uint8"
            },
            {
              "internalType": "uint256",
              "name": "timestamp",
              "type": "uint256"
            },
            {
              "internalType": "bytes32",
              "name": "trackingCode",
              "type": "bytes32"
            }
          ],
          "internalType": "struct Report.ReportData[]",
          "name": "",
          "type": "tuple[]"
        }
      ],
      "stateMutability": "view",
      "type": "function"
    },
    {
      "inputs": [
        {
          "internalType": "bytes32",
          "name": "_trackingCode",
          "type": "bytes32"
        }
      ],
      "name": "getReportByCode",
      "outputs": [
        {
          "internalType": "uint256",
          "name": "id",
          "type": "uint256"
        },
        {
          "internalType": "string",
          "name": "category",
          "type": "string"
        },
        {
          "internalType": "enum Report.ReportStatus",
          "name": "status",
          "type": "uint8"
        },
        {
          "internalType": "uint256",
          "name": "timestamp",
          "type": "uint256"
        }
      ],
      "stateMutability": "view",
      "type": "function"
    },
    {
      "inputs": [],
      "name": "getReportCount",
      "outputs": [
        {
          "internalType": "uint256",
          "name": "",
          "type": "uint256"
        }
      ],
      "stateMutability": "view",
      "type": "function"
    },
    {
      "inputs": [
        {
          "internalType": "uint256",
          "name": "_reportId",
          "type": "uint256"
        },
        {
          "internalType": "uint256",
          "name": "_commentIndex",
          "type": "uint256"
        }
      ],
      "name": "hideComment",
      "outputs": [],
      "stateMutability": "nonpayable",
      "type": "function"
    },
    {
      "inputs": [
        {
          "internalType": "address",
          "name": "_addr",
          "type": "address"
        }
      ],
      "name": "isAdmin",
      "outputs": [
        {
          "internalType": "bool",
          "name": "",
          "type": "bool"
        }
      ],
      "stateMutability": "view",
      "type": "function"
    },
    {
      "inputs": [],
      "name": "owner",
      "outputs": [
        {
          "internalType": "address",
          "name": "",
          "type": "address"
        }
      ],
      "stateMutability": "view",
      "type": "function"
    },
    {
      "inputs": [
        {
          "internalType": "address",
          "name": "_admin",
          "type": "address"
        }
      ],
      "name": "removeAdmin",
      "outputs": [],
      "stateMutability": "nonpayable",
      "type": "function"
    },
    {
      "inputs": [
        {
          "internalType": "string",
          "name": "_ipfsHash",
          "type": "string"
        },
        {
          "internalType": "string",
          "name": "_category",
          "type": "string"
        }
      ],
      "name": "submitReport",
      "outputs": [
        {
          "internalType": "bytes32",
          "name": "",
          "type": "bytes32"
        }
      ],
      "stateMutability": "nonpayable",
      "type": "function"
    },
    {
      "inputs": [],
      "name": "totalDonated",
      "outputs": [
        {
          "internalType": "uint256",
          "name": "",
          "type": "uint256"
        }
      ],
      "stateMutability": "view",
      "type": "function"
    },
    {
      "inputs": [
        {
          "internalType": "uint256",
          "name": "_reportId",
          "type": "uint256"
        },
        {
          "internalType": "uint256",
          "name": "_commentIndex",
          "type": "uint256"
        }
      ],
      "name": "unhideComment",
      "outputs": [],
      "stateMutability": "nonpayable",
      "type": "function"
    },
    {
      "inputs": [
        {
          "internalType": "uint256",
          "name": "_id",
          "type": "uint256"
        },
        {
          "internalType": "enum Report.ReportStatus",
          "name": "_newStatus",
          "type": "uint8"
        }
      ],
      "name": "updateStatus",
      "outputs": [],
      "stateMutability": "nonpayable",
      "type": "function"
    }
  ],
  "bytecode": "0x608060405234801561001057600080fd5b50336000806101000a81548173ffffffffffffffffffffffffffffffffffffffff021916908373ffffffffffffffffffffffffffffffffffffffff16021790555060018060003373ffffffffffffffffffffffffffffffffffffffff1673ffffffffffffffffffffffffffffffffffffffff16815260200190815260200160002060006101000a81548160ff0219169083151502179055506002339080600181540180825580915050600190039060005260206000200160009091909190916101000a81548173ffffffffffffffffffffffffffffffffffffffff021916908373ffffffffffffffffffffffffffffffffffffffff160217905550613cd78061011a6000396000f3fe6080604052600436106101135760003560e01c80638da5cb5b116100a0578063e0e62d1f11610064578063e0e62d1f146103c2578063ed88c68e14610402578063f3d3ddfa1461040c578063fd249fe214610437578063ff18aae71461046257610113565b80638da5cb5b146102db578063aa7e568314610306578063cad9642b1461032f578063d2acceda1461035a578063d9f774fc1461039757610113565b806324d7806c116100e757806324d7806c146101e65780633a1b3d3114610223578063429b62e51461024c5780636306186c1461028957806370480275146102b257610113565b8062b370441461011857806303926df9146101435780631785f53c1461018057806323edf697146101a9575b600080fd5b34801561012457600080fd5b5061012d61048b565b60405161013a9190612678565b60405180910390f35b34801561014f57600080fd5b5061016a600480360381019061016591906126d3565b610491565b6040516101779190612946565b60405180910390f35b34801561018c57600080fd5b506101a760048036038101906101a29190612994565b610703565b005b3480156101b557600080fd5b506101d060048036038101906101cb91906126d3565b610ad0565b6040516101dd9190612946565b60405180910390f35b3480156101f257600080fd5b5061020d60048036038101906102089190612994565b610dd1565b60405161021a91906129d0565b60405180910390f35b34801561022f57600080fd5b5061024a60048036038101906102459190612a10565b610e27565b005b34801561025857600080fd5b50610273600480360381019061026e9190612994565b611041565b60405161028091906129d0565b60405180910390f35b34801561029557600080fd5b506102b060048036038101906102ab9190612a50565b611061565b005b3480156102be57600080fd5b506102d960048036038101906102d49190612994565b611223565b005b3480156102e757600080fd5b506102f06114ad565b6040516102fd9190612a9f565b60405180910390f35b34801561031257600080fd5b5061032d60048036038101906103289190612bef565b6114d1565b005b34801561033b57600080fd5b5061034461176b565b6040516103519190612678565b60405180910390f35b34801561036657600080fd5b50610381600480360381019061037c9190612c4b565b611775565b60405161038e9190612cdc565b60405180910390f35b3480156103a357600080fd5b506103ac6119dc565b6040516103b99190612da6565b60405180910390f35b3480156103ce57600080fd5b506103e960048036038101906103e49190612df4565b611af8565b6040516103f99493929190612ee2565b60405180910390f35b61040a611c2e565b005b34801561041857600080fd5b50610421611d41565b60405161042e91906130b1565b60405180910390f35b34801561044357600080fd5b5061044c61206f565b60405161045991906130b1565b60405180910390f35b34801561046e57600080fd5b5061048960048036038101906104849190612a50565b6123e7565b005b60055481565b6060600160003373ffffffffffffffffffffffffffffffffffffffff1673ffffffffffffffffffffffffffffffffffffffff16815260200190815260200160002060009054906101000a900460ff1661051f576040517f08c379a00000000000000000000000000000000000000000000000000000000081526004016105169061311f565b60405180910390fd5b8160008111801561053257506003548111155b610571576040517f08c379a00000000000000000000000000000000000000000000000000000000081526004016105689061318b565b60405180910390fd5b60086000848152602001908152602001600020805480602002602001604051908101604052809291908181526020016000905b828210156106f757838290600052602060002090600602016040518060c001604052908160008201548152602001600182015481526020016002820160009054906101000a900473ffffffffffffffffffffffffffffffffffffffff1673ffffffffffffffffffffffffffffffffffffffff1673ffffffffffffffffffffffffffffffffffffffff168152602001600382018054610641906131da565b80601f016020809104026020016040519081016040528092919081815260200182805461066d906131da565b80156106ba5780601f1061068f576101008083540402835291602001916106ba565b820191906000526020600020905b81548152906001019060200180831161069d57829003601f168201915b50505050508152602001600482015481526020016005820160009054906101000a900460ff161515151581525050815260200190600101906105a4565b50505050915050919050565b60008054906101000a900473ffffffffffffffffffffffffffffffffffffffff1673ffffffffffffffffffffffffffffffffffffffff163373ffffffffffffffffffffffffffffffffffffffff1614610791576040517f08c379a000000000000000000000000000000000000000000000000000000000815260040161078890613257565b60405180910390fd5b60008054906101000a900473ffffffffffffffffffffffffffffffffffffffff1673ffffffffffffffffffffffffffffffffffffffff168173ffffffffffffffffffffffffffffffffffffffff160361081f576040517f08c379a0000000000000000000000000000000000000000000000000000000008152600401610816906132c3565b60405180910390fd5b600160008273ffffffffffffffffffffffffffffffffffffffff1673ffffffffffffffffffffffffffffffffffffffff16815260200190815260200160002060009054906101000a900460ff166108ab576040517f08c379a00000000000000000000000000000000000000000000000000000000081526004016108a29061332f565b60405180910390fd5b6000600160008373ffffffffffffffffffffffffffffffffffffffff1673ffffffffffffffffffffffffffffffffffffffff16815260200190815260200160002060006101000a81548160ff02191690831515021790555060005b600280549050811015610a89578173ffffffffffffffffffffffffffffffffffffffff166002828154811061093e5761093d61334f565b5b9060005260206000200160009054906101000a900473ffffffffffffffffffffffffffffffffffffffff1673ffffffffffffffffffffffffffffffffffffffff1603610a7c576002600160028054905061099891906133ad565b815481106109a9576109a861334f565b5b9060005260206000200160009054906101000a900473ffffffffffffffffffffffffffffffffffffffff16600282815481106109e8576109e761334f565b5b9060005260206000200160006101000a81548173ffffffffffffffffffffffffffffffffffffffff021916908373ffffffffffffffffffffffffffffffffffffffff1602179055506002805480610a4257610a416133e1565b5b6001900381819060005260206000200160006101000a81549073ffffffffffffffffffffffffffffffffffffffff02191690559055610a89565b8080600101915050610906565b508073ffffffffffffffffffffffffffffffffffffffff167fa3b62bc36326052d97ea62d63c3d60308ed4c3ea8ac079dd8499f1e9c4f80c0f60405160405180910390a250565b606081600081118015610ae557506003548111155b610b24576040517f08c379a0000000000000000000000000000000000000000000000000000000008152600401610b1b9061318b565b60405180910390fd5b60006008600085815260200190815260200160002090506000805b8280549050811015610b9d57828181548110610b5e57610b5d61334f565b5b906000526020600020906006020160050160009054906101000a900460ff16610b90578180610b8c90613410565b9250505b8080600101915050610b3f565b5060008167ffffffffffffffff811115610bba57610bb9612ac4565b5b604051908082528060200260200182016040528015610bf357816020015b610be06125a9565b815260200190600190039081610bd85790505b5090506000805b8480549050811015610dc357848181548110610c1957610c1861334f565b5b906000526020600020906006020160050160009054906101000a900460ff16610db657848181548110610c4f57610c4e61334f565b5b90600052602060002090600602016040518060c001604052908160008201548152602001600182015481526020016002820160009054906101000a900473ffffffffffffffffffffffffffffffffffffffff1673ffffffffffffffffffffffffffffffffffffffff1673ffffffffffffffffffffffffffffffffffffffff168152602001600382018054610ce2906131da565b80601f0160208091040260200160405190810160405280929190818152602001828054610d0e906131da565b8015610d5b5780601f10610d3057610100808354040283529160200191610d5b565b820191906000526020600020905b815481529060010190602001808311610d3e57829003601f168201915b50505050508152602001600482015481526020016005820160009054906101000a900460ff161515151581525050838381518110610d9c57610d9b61334f565b5b60200260200101819052508180610db290613410565b9250505b8080600101915050610bfa565b508195505050505050919050565b6000600160008373ffffffffffffffffffffffffffffffffffffffff1673ffffffffffffffffffffffffffffffffffffffff16815260200190815260200160002060009054906101000a900460ff169050919050565b600160003373ffffffffffffffffffffffffffffffffffffffff1673ffffffffffffffffffffffffffffffffffffffff16815260200190815260200160002060009054906101000a900460ff16610eb3576040517f08c379a0000000000000000000000000000000000000000000000000000000008152600401610eaa9061311f565b60405180910390fd5b81600081118015610ec657506003548111155b610f05576040517f08c379a0000000000000000000000000000000000000000000000000000000008152600401610efc9061318b565b60405180910390fd5b60006006600085815260200190815260200160002060040160009054906101000a900460ff16905060026003811115610f4157610f40612e6b565b5b816003811115610f5457610f53612e6b565b5b14158015610f865750600380811115610f7057610f6f612e6b565b5b816003811115610f8357610f82612e6b565b5b14155b610fc5576040517f08c379a0000000000000000000000000000000000000000000000000000000008152600401610fbc906134a4565b60405180910390fd5b826006600086815260200190815260200160002060040160006101000a81548160ff02191690836003811115610ffe57610ffd612e6b565b5b0217905550837f2da7b23ca63c1eb969eee5fae4acb98186abecf5358b0354a82a5183ebca6b2a8460405161103391906134c4565b60405180910390a250505050565b60016020528060005260406000206000915054906101000a900460ff1681565b600160003373ffffffffffffffffffffffffffffffffffffffff1673ffffffffffffffffffffffffffffffffffffffff16815260200190815260200160002060009054906101000a900460ff166110ed576040517f08c379a00000000000000000000000000000000000000000000000000000000081526004016110e49061311f565b60405180910390fd5b8160008111801561110057506003548111155b61113f576040517f08c379a00000000000000000000000000000000000000000000000000000000081526004016111369061318b565b60405180910390fd5b60086000848152602001908152602001600020805490508210611197576040517f08c379a000000000000000000000000000000000000000000000000000000000815260040161118e9061352b565b60405180910390fd5b60006008600085815260200190815260200160002083815481106111be576111bd61334f565b5b906000526020600020906006020160050160006101000a81548160ff021916908315150217905550827fd1c57f3e77a6058cd0020b0298fbaf5eccfd783b091426aa237a07691820c716836040516112169190612678565b60405180910390a2505050565b60008054906101000a900473ffffffffffffffffffffffffffffffffffffffff1673ffffffffffffffffffffffffffffffffffffffff163373ffffffffffffffffffffffffffffffffffffffff16146112b1576040517f08c379a00000000000000000000000000000000000000000000000000000000081526004016112a890613257565b60405180910390fd5b600073ffffffffffffffffffffffffffffffffffffffff168173ffffffffffffffffffffffffffffffffffffffff1603611320576040517f08c379a000000000000000000000000000000000000000000000000000000000815260040161131790613597565b60405180910390fd5b600160008273ffffffffffffffffffffffffffffffffffffffff1673ffffffffffffffffffffffffffffffffffffffff16815260200190815260200160002060009054906101000a900460ff16156113ad576040517f08c379a00000000000000000000000000000000000000000000000000000000081526004016113a490613603565b60405180910390fd5b60018060008373ffffffffffffffffffffffffffffffffffffffff1673ffffffffffffffffffffffffffffffffffffffff16815260200190815260200160002060006101000a81548160ff0219169083151502179055506002819080600181540180825580915050600190039060005260206000200160009091909190916101000a81548173ffffffffffffffffffffffffffffffffffffffff021916908373ffffffffffffffffffffffffffffffffffffffff1602179055508073ffffffffffffffffffffffffffffffffffffffff167f44d6d25963f097ad14f29f06854a01f575648a1ef82f30e562ccd3889717e33960405160405180910390a250565b60008054906101000a900473ffffffffffffffffffffffffffffffffffffffff1681565b816000811180156114e457506003548111155b611523576040517f08c379a000000000000000000000000000000000000000000000000000000000815260040161151a9061318b565b60405180910390fd5b6002600381111561153757611536612e6b565b5b6006600085815260200190815260200160002060040160009054906101000a900460ff16600381111561156d5761156c612e6b565b5b146115ad576040517f08c379a00000000000000000000000000000000000000000000000000000000081526004016115a490613695565b60405180910390fd5b60008251116115f1576040517f08c379a00000000000000000000000000000000000000000000000000000000081526004016115e890613701565b60405180910390fd5b6004600081548092919061160490613410565b9190505550600860008481526020019081526020016000206040518060c0016040528060045481526020018581526020013373ffffffffffffffffffffffffffffffffffffffff168152602001848152602001428152602001600015158152509080600181540180825580915050600190039060005260206000209060060201600090919091909150600082015181600001556020820151816001015560408201518160020160006101000a81548173ffffffffffffffffffffffffffffffffffffffff021916908373ffffffffffffffffffffffffffffffffffffffff16021790555060608201518160030190816116fd91906138cd565b506080820151816004015560a08201518160050160006101000a81548160ff0219169083151502179055505050827fdb54cde47150062529bc4f2e10c2493c8ae39bc079c9c24f9e365c135098d4bb6004543360405161175e92919061399f565b60405180910390a2505050565b6000600354905090565b6000808351116117ba576040517f08c379a00000000000000000000000000000000000000000000000000000000081526004016117b190613a14565b60405180910390fd5b60008251116117fe576040517f08c379a00000000000000000000000000000000000000000000000000000000081526004016117f590613a80565b60405180910390fd5b6003600081548092919061181190613410565b919050555060006003549050600033824260405160200161183493929190613b09565b6040516020818303038152906040528051906020012090506040518060e001604052808381526020013373ffffffffffffffffffffffffffffffffffffffff1681526020018681526020018581526020016000600381111561189957611898612e6b565b5b815260200142815260200182815250600660008481526020019081526020016000206000820151816000015560208201518160010160006101000a81548173ffffffffffffffffffffffffffffffffffffffff021916908373ffffffffffffffffffffffffffffffffffffffff160217905550604082015181600201908161192191906138cd565b50606082015181600301908161193791906138cd565b5060808201518160040160006101000a81548160ff0219169083600381111561196357611962612e6b565b5b021790555060a0820151816005015560c08201518160060155905050816007600083815260200190815260200160002081905550817f2568e861a4727199839b61282c5e53bcccd5be024ea6e806343ac035ef58332482336040516119c9929190613b46565b60405180910390a2809250505092915050565b606060008054906101000a900473ffffffffffffffffffffffffffffffffffffffff1673ffffffffffffffffffffffffffffffffffffffff163373ffffffffffffffffffffffffffffffffffffffff1614611a6c576040517f08c379a0000000000000000000000000000000000000000000000000000000008152600401611a6390613257565b60405180910390fd5b6002805480602002602001604051908101604052809291908181526020018280548015611aee57602002820191906000526020600020905b8160009054906101000a900473ffffffffffffffffffffffffffffffffffffffff1673ffffffffffffffffffffffffffffffffffffffff1681526020019060010190808311611aa4575b5050505050905090565b6000606060008060006007600087815260200190815260200160002054905060008103611b5a576040517f08c379a0000000000000000000000000000000000000000000000000000000008152600401611b5190613bbb565b60405180910390fd5b60006006600083815260200190815260200160002090508060000154816003018260040160009054906101000a900460ff168360050154828054611b9d906131da565b80601f0160208091040260200160405190810160405280929190818152602001828054611bc9906131da565b8015611c165780601f10611beb57610100808354040283529160200191611c16565b820191906000526020600020905b815481529060010190602001808311611bf957829003601f168201915b50505050509250955095509550955050509193509193565b60003411611c71576040517f08c379a0000000000000000000000000000000000000000000000000000000008152600401611c6890613c4d565b60405180910390fd5b3460056000828254611c839190613c6d565b9250508190555060008054906101000a900473ffffffffffffffffffffffffffffffffffffffff1673ffffffffffffffffffffffffffffffffffffffff166108fc349081150290604051600060405180830381858888f19350505050158015611cf0573d6000803e3d6000fd5b503373ffffffffffffffffffffffffffffffffffffffff167f2a01595cddf097c90216094025db714da3f4e5bd8877b56ba86a24ecead8e54334604051611d379190612678565b60405180910390a2565b6060600160003373ffffffffffffffffffffffffffffffffffffffff1673ffffffffffffffffffffffffffffffffffffffff16815260200190815260200160002060009054906101000a900460ff16611dcf576040517f08c379a0000000000000000000000000000000000000000000000000000000008152600401611dc69061311f565b60405180910390fd5b600060035467ffffffffffffffff811115611ded57611dec612ac4565b5b604051908082528060200260200182016040528015611e2657816020015b611e136125f7565b815260200190600190039081611e0b5790505b5090506000600190505b600354811161206757600660008281526020019081526020016000206040518060e0016040529081600082015481526020016001820160009054906101000a900473ffffffffffffffffffffffffffffffffffffffff1673ffffffffffffffffffffffffffffffffffffffff1673ffffffffffffffffffffffffffffffffffffffff168152602001600282018054611ec7906131da565b80601f0160208091040260200160405190810160405280929190818152602001828054611ef3906131da565b8015611f405780601f10611f1557610100808354040283529160200191611f40565b820191906000526020600020905b815481529060010190602001808311611f2357829003601f168201915b50505050508152602001600382018054611f59906131da565b80601f0160208091040260200160405190810160405280929190818152602001828054611f85906131da565b8015611fd25780601f10611fa757610100808354040283529160200191611fd2565b820191906000526020600020905b815481529060010190602001808311611fb557829003601f168201915b505050505081526020016004820160009054906101000a900460ff16600381111561200057611fff612e6b565b5b600381111561201257612011612e6b565b5b8152602001600582015481526020016006820154815250508260018361203891906133ad565b815181106120495761204861334f565b5b6020026020010181905250808061205f90613410565b915050611e30565b508091505090565b6060600080600190505b60035481116120f3576002600381111561209657612095612e6b565b5b6006600083815260200190815260200160002060040160009054906101000a900460ff1660038111156120cc576120cb612e6b565b5b036120e05781806120dc90613410565b9250505b80806120eb90613410565b915050612079565b5060008167ffffffffffffffff8111156121105761210f612ac4565b5b60405190808252806020026020018201604052801561214957816020015b6121366125f7565b81526020019060019003908161212e5790505b509050600080600190505b60035481116123dd576002600381111561217157612170612e6b565b5b6006600083815260200190815260200160002060040160009054906101000a900460ff1660038111156121a7576121a6612e6b565b5b036123ca57600660008281526020019081526020016000206040518060e0016040529081600082015481526020016001820160009054906101000a900473ffffffffffffffffffffffffffffffffffffffff1673ffffffffffffffffffffffffffffffffffffffff1673ffffffffffffffffffffffffffffffffffffffff16815260200160028201805461223a906131da565b80601f0160208091040260200160405190810160405280929190818152602001828054612266906131da565b80156122b35780601f10612288576101008083540402835291602001916122b3565b820191906000526020600020905b81548152906001019060200180831161229657829003601f168201915b505050505081526020016003820180546122cc906131da565b80601f01602080910402602001604051908101604052809291908181526020018280546122f8906131da565b80156123455780601f1061231a57610100808354040283529160200191612345565b820191906000526020600020905b81548152906001019060200180831161232857829003601f168201915b505050505081526020016004820160009054906101000a900460ff16600381111561237357612372612e6b565b5b600381111561238557612384612e6b565b5b8152602001600582015481526020016006820154815250508383815181106123b0576123af61334f565b5b602002602001018190525081806123c690613410565b9250505b80806123d590613410565b915050612154565b5081935050505090565b600160003373ffffffffffffffffffffffffffffffffffffffff1673ffffffffffffffffffffffffffffffffffffffff16815260200190815260200160002060009054906101000a900460ff16612473576040517f08c379a000000000000000000000000000000000000000000000000000000000815260040161246a9061311f565b60405180910390fd5b8160008111801561248657506003548111155b6124c5576040517f08c379a00000000000000000000000000000000000000000000000000000000081526004016124bc9061318b565b60405180910390fd5b6008600084815260200190815260200160002080549050821061251d576040517f08c379a00000000000000000000000000000000000000000000000000000000081526004016125149061352b565b60405180910390fd5b60016008600085815260200190815260200160002083815481106125445761254361334f565b5b906000526020600020906006020160050160006101000a81548160ff021916908315150217905550827fa74162da233540e21116e0b56e4228060ec19ab01d369ff90fcc2082b524e2e48360405161259c9190612678565b60405180910390a2505050565b6040518060c001604052806000815260200160008152602001600073ffffffffffffffffffffffffffffffffffffffff16815260200160608152602001600081526020016000151581525090565b6040518060e0016040528060008152602001600073ffffffffffffffffffffffffffffffffffffffff16815260200160608152602001606081526020016000600381111561264857612647612e6b565b5b815260200160008152602001600080191681525090565b6000819050919050565b6126728161265f565b82525050565b600060208201905061268d6000830184612669565b92915050565b6000604051905090565b600080fd5b600080fd5b6126b08161265f565b81146126bb57600080fd5b50565b6000813590506126cd816126a7565b92915050565b6000602082840312156126e9576126e861269d565b5b60006126f7848285016126be565b91505092915050565b600081519050919050565b600082825260208201905092915050565b6000819050602082019050919050565b6127358161265f565b82525050565b600073ffffffffffffffffffffffffffffffffffffffff82169050919050565b60006127668261273b565b9050919050565b6127768161275b565b82525050565b600081519050919050565b600082825260208201905092915050565b60005b838110156127b657808201518184015260208101905061279b565b60008484015250505050565b6000601f19601f8301169050919050565b60006127de8261277c565b6127e88185612787565b93506127f8818560208601612798565b612801816127c2565b840191505092915050565b60008115159050919050565b6128218161280c565b82525050565b600060c08301600083015161283f600086018261272c565b506020830151612852602086018261272c565b506040830151612865604086018261276d565b506060830151848203606086015261287d82826127d3565b9150506080830151612892608086018261272c565b5060a08301516128a560a0860182612818565b508091505092915050565b60006128bc8383612827565b905092915050565b6000602082019050919050565b60006128dc82612700565b6128e6818561270b565b9350836020820285016128f88561271c565b8060005b85811015612934578484038952815161291585826128b0565b9450612920836128c4565b925060208a019950506001810190506128fc565b50829750879550505050505092915050565b6000602082019050818103600083015261296081846128d1565b905092915050565b6129718161275b565b811461297c57600080fd5b50565b60008135905061298e81612968565b92915050565b6000602082840312156129aa576129a961269d565b5b60006129b88482850161297f565b91505092915050565b6129ca8161280c565b82525050565b60006020820190506129e560008301846129c1565b92915050565b600481106129f857600080fd5b50565b600081359050612a0a816129eb565b92915050565b60008060408385031215612a2757612a2661269d565b5b6000612a35858286016126be565b9250506020612a46858286016129fb565b9150509250929050565b60008060408385031215612a6757612a6661269d565b5b6000612a75858286016126be565b9250506020612a86858286016126be565b9150509250929050565b612a998161275b565b82525050565b6000602082019050612ab46000830184612a90565b92915050565b600080fd5b600080fd5b7f4e487b7100000000000000000000000000000000000000000000000000000000600052604160045260246000fd5b612afc826127c2565b810181811067ffffffffffffffff82111715612b1b57612b1a612ac4565b5b80604052505050565b6000612b2e612693565b9050612b3a8282612af3565b919050565b600067ffffffffffffffff821115612b5a57612b59612ac4565b5b612b63826127c2565b9050602081019050919050565b82818337600083830152505050565b6000612b92612b8d84612b3f565b612b24565b905082815260208101848484011115612bae57612bad612abf565b5b612bb9848285612b70565b509392505050565b600082601f830112612bd657612bd5612aba565b5b8135612be6848260208601612b7f565b91505092915050565b60008060408385031215612c0657612c0561269d565b5b6000612c14858286016126be565b925050602083013567ffffffffffffffff811115612c3557612c346126a2565b5b612c4185828601612bc1565b9150509250929050565b60008060408385031215612c6257612c6161269d565b5b600083013567ffffffffffffffff811115612c8057612c7f6126a2565b5b612c8c85828601612bc1565b925050602083013567ffffffffffffffff811115612cad57612cac6126a2565b5b612cb985828601612bc1565b9150509250929050565b6000819050919050565b612cd681612cc3565b82525050565b6000602082019050612cf16000830184612ccd565b92915050565b600081519050919050565b600082825260208201905092915050565b6000819050602082019050919050565b6000612d2f838361276d565b60208301905092915050565b6000602082019050919050565b6000612d5382612cf7565b612d5d8185612d02565b9350612d6883612d13565b8060005b83811015612d99578151612d808882612d23565b9750612d8b83612d3b565b925050600181019050612d6c565b5085935050505092915050565b60006020820190508181036000830152612dc08184612d48565b905092915050565b612dd181612cc3565b8114612ddc57600080fd5b50565b600081359050612dee81612dc8565b92915050565b600060208284031215612e0a57612e0961269d565b5b6000612e1884828501612ddf565b91505092915050565b600082825260208201905092915050565b6000612e3d8261277c565b612e478185612e21565b9350612e57818560208601612798565b612e60816127c2565b840191505092915050565b7f4e487b7100000000000000000000000000000000000000000000000000000000600052602160045260246000fd5b60048110612eab57612eaa612e6b565b5b50565b6000819050612ebc82612e9a565b919050565b6000612ecc82612eae565b9050919050565b612edc81612ec1565b82525050565b6000608082019050612ef76000830187612669565b8181036020830152612f098186612e32565b9050612f186040830185612ed3565b612f256060830184612669565b95945050505050565b600081519050919050565b600082825260208201905092915050565b6000819050602082019050919050565b612f6381612ec1565b82525050565b612f7281612cc3565b82525050565b600060e083016000830151612f90600086018261272c565b506020830151612fa3602086018261276d565b5060408301518482036040860152612fbb82826127d3565b91505060608301518482036060860152612fd582826127d3565b9150506080830151612fea6080860182612f5a565b5060a0830151612ffd60a086018261272c565b5060c083015161301060c0860182612f69565b508091505092915050565b60006130278383612f78565b905092915050565b6000602082019050919050565b600061304782612f2e565b6130518185612f39565b93508360208202850161306385612f4a565b8060005b8581101561309f5784840389528151613080858261301b565b945061308b8361302f565b925060208a01995050600181019050613067565b50829750879550505050505092915050565b600060208201905081810360008301526130cb818461303c565b905092915050565b7f4f6e6c792061646d696e2063616e2063616c6c20746869730000000000000000600082015250565b6000613109601883612e21565b9150613114826130d3565b602082019050919050565b60006020820190508181036000830152613138816130fc565b9050919050565b7f5265706f727420646f6573206e6f742065786973740000000000000000000000600082015250565b6000613175601583612e21565b91506131808261313f565b602082019050919050565b600060208201905081810360008301526131a481613168565b9050919050565b7f4e487b7100000000000000000000000000000000000000000000000000000000600052602260045260246000fd5b600060028204905060018216806131f257607f821691505b602082108103613205576132046131ab565b5b50919050565b7f4f6e6c79206f776e65722063616e2063616c6c20746869730000000000000000600082015250565b6000613241601883612e21565b915061324c8261320b565b602082019050919050565b6000602082019050818103600083015261327081613234565b9050919050565b7f43616e6e6f742072656d6f7665206f776e657200000000000000000000000000600082015250565b60006132ad601383612e21565b91506132b882613277565b602082019050919050565b600060208201905081810360008301526132dc816132a0565b9050919050565b7f4e6f7420616e2061646d696e0000000000000000000000000000000000000000600082015250565b6000613319600c83612e21565b9150613324826132e3565b602082019050919050565b600060208201905081810360008301526133488161330c565b9050919050565b7f4e487b7100000000000000000000000000000000000000000000000000000000600052603260045260246000fd5b7f4e487b7100000000000000000000000000000000000000000000000000000000600052601160045260246000fd5b60006133b88261265f565b91506133c38361265f565b92508282039050818111156133db576133da61337e565b5b92915050565b7f4e487b7100000000000000000000000000000000000000000000000000000000600052603160045260246000fd5b600061341b8261265f565b91507fffffffffffffffffffffffffffffffffffffffffffffffffffffffffffffffff820361344d5761344c61337e565b5b600182019050919050565b7f43616e6e6f74206368616e67652066696e616c20737461747573000000000000600082015250565b600061348e601a83612e21565b915061349982613458565b602082019050919050565b600060208201905081810360008301526134bd81613481565b9050919050565b60006020820190506134d96000830184612ed3565b92915050565b7f436f6d6d656e7420646f6573206e6f7420657869737400000000000000000000600082015250565b6000613515601683612e21565b9150613520826134df565b602082019050919050565b6000602082019050818103600083015261354481613508565b9050919050565b7f496e76616c696420616464726573730000000000000000000000000000000000600082015250565b6000613581600f83612e21565b915061358c8261354b565b602082019050919050565b600060208201905081810360008301526135b081613574565b9050919050565b7f416c726561647920616e2061646d696e00000000000000000000000000000000600082015250565b60006135ed601083612e21565b91506135f8826135b7565b602082019050919050565b6000602082019050818103600083015261361c816135e0565b9050919050565b7f43616e206f6e6c7920636f6d6d656e74206f6e207265736f6c7665642072657060008201527f6f72747300000000000000000000000000000000000000000000000000000000602082015250565b600061367f602483612e21565b915061368a82613623565b604082019050919050565b600060208201905081810360008301526136ae81613672565b9050919050565b7f436f6e74656e7420697320726571756972656400000000000000000000000000600082015250565b60006136eb601383612e21565b91506136f6826136b5565b602082019050919050565b6000602082019050818103600083015261371a816136de565b9050919050565b60008190508160005260206000209050919050565b60006020601f8301049050919050565b600082821b905092915050565b6000600883026137837fffffffffffffffffffffffffffffffffffffffffffffffffffffffffffffffff82613746565b61378d8683613746565b95508019841693508086168417925050509392505050565b6000819050919050565b60006137ca6137c56137c08461265f565b6137a5565b61265f565b9050919050565b6000819050919050565b6137e4836137af565b6137f86137f0826137d1565b848454613753565b825550505050565b600090565b61380d613800565b6138188184846137db565b505050565b5b8181101561383c57613831600082613805565b60018101905061381e565b5050565b601f8211156138815761385281613721565b61385b84613736565b8101602085101561386a578190505b61387e61387685613736565b83018261381d565b50505b505050565b600082821c905092915050565b60006138a460001984600802613886565b1980831691505092915050565b60006138bd8383613893565b9150826002028217905092915050565b6138d68261277c565b67ffffffffffffffff8111156138ef576138ee612ac4565b5b6138f982546131da565b613904828285613840565b600060209050601f8311600181146139375760008415613925578287015190505b61392f85826138b1565b865550613997565b601f19841661394586613721565b60005b8281101561396d57848901518255600182019150602085019450602081019050613948565b8683101561398a5784890151613986601f891682613893565b8355505b6001600288020188555050505b505050505050565b60006040820190506139b46000830185612669565b6139c16020830184612a90565b9392505050565b7f4950465320686173682069732072657175697265640000000000000000000000600082015250565b60006139fe601583612e21565b9150613a09826139c8565b602082019050919050565b60006020820190508181036000830152613a2d816139f1565b9050919050565b7f43617465676f7279206973207265717569726564000000000000000000000000600082015250565b6000613a6a601483612e21565b9150613a7582613a34565b602082019050919050565b60006020820190508181036000830152613a9981613a5d565b9050919050565b60008160601b9050919050565b6000613ab882613aa0565b9050919050565b6000613aca82613aad565b9050919050565b613ae2613add8261275b565b613abf565b82525050565b6000819050919050565b613b03613afe8261265f565b613ae8565b82525050565b6000613b158286613ad1565b601482019150613b258285613af2565b602082019150613b358284613af2565b602082019150819050949350505050565b6000604082019050613b5b6000830185612ccd565b613b686020830184612a90565b9392505050565b7f496e76616c696420747261636b696e6720636f64650000000000000000000000600082015250565b6000613ba5601583612e21565b9150613bb082613b6f565b602082019050919050565b60006020820190508181036000830152613bd481613b98565b9050919050565b7f446f6e6174696f6e20616d6f756e74206d75737420626520677265617465722060008201527f7468616e20300000000000000000000000000000000000000000000000000000602082015250565b6000613c37602683612e21565b9150613c4282613bdb565b604082019050919050565b60006020820190508181036000830152613c6681613c2a565b9050919050565b6000613c788261265f565b9150613c838361265f565b9250828201905080821115613c9b57613c9a61337e565b5b9291505056fea2646970667358221220ee0f8e108c26eaffe346de9abd53eefa24b1c5d08b760092c7c98b7de0975a5364736f6c63430008180033",
  "linkReferences": {},
  "deployedLinkReferences": {}
}