{
  "_format": "hh-sol-artifact-1",
  "contractName": "Report",
  "sourceName": "contracts/Report.sol",
  "abi": [
    {
      "inputs": [],
      "stateMutability": "nonpayable",
      "type": "constructor"
    },
    {
      "anonymous": false,
      "inputs": [
        {
          "indexed": true,
          "internalType": "uint256",
          "name": "reportId",
          "type": "uint256"
        },
        {
          "indexed": false,
          "internalType": "uint256",
          "name": "commentId",
          "type": "uint256"
        },
        {
          "indexed": false,
          "internalType": "address",
          "name": "author",
          "type": "address"
        }
      ],
      "name": "CommentAdded",
      "type": "event"
    },
    {
      "anonymous": false,
      "inputs": [
        {
          "indexed": true,
          "internalType": "uint256",
          "name": "reportId",
          "type": "uint256"
        },
        {
          "indexed": false,
          "internalType": "uint256",
          "name": "commentIndex",
          "type": "uint256"
        }
      ],
      "name": "CommentHidden",
      "type": "event"
    },
    {
      "anonymous": false,
      "inputs": [
        {
          "indexed": true,
          "internalType": "uint256",
          "name": "reportId",
          "type": "uint256"
        },
        {
          "indexed": false,
          "internalType": "uint256",
          "name": "commentIndex",
          "type": "uint256"
        }
      ],
      "name": "CommentUnhidden",
      "type": "event"
    },
    {
      "anonymous": false,
      "inputs": [
        {
          "indexed": true,
          "internalType": "uint256",
          "name": "id",
          "type": "uint256"
        },
        {
          "indexed": false,
          "internalType": "bytes32",
          "name": "trackingCode",
          "type": "bytes32"
        },
        {
          "indexed": false,
          "internalType": "address",
          "name": "reporter",
          "type": "address"
        }
      ],
      "name": "ReportSubmitted",
      "type": "event"
    },
    {
      "anonymous": false,
      "inputs": [
        {
          "indexed": true,
          "internalType": "uint256",
          "name": "id",
          "type": "uint256"
        },
        {
          "indexed": false,
          "internalType": "enum Report.ReportStatus",
          "name": "newStatus",
          "type": "uint8"
        }
      ],
      "name": "StatusUpdated",
      "type": "event"
    },
    {
      "inputs": [
        {
          "internalType": "uint256",
          "name": "_reportId",
          "type": "uint256"
        },
        {
          "internalType": "string",
          "name": "_content",
          "type": "string"
        }
      ],
      "name": "addComment",
      "outputs": [],
      "stateMutability": "nonpayable",
      "type": "function"
    },
    {
      "inputs": [],
      "name": "admin",
      "outputs": [
        {
          "internalType": "address",
          "name": "",
          "type": "address"
        }
      ],
      "stateMutability": "view",
      "type": "function"
    },
    {
      "inputs": [
        {
          "internalType": "uint256",
          "name": "_reportId",
          "type": "uint256"
        }
      ],
      "name": "getAllComments",
      "outputs": [
        {
          "components": [
            {
              "internalType": "uint256",
              "name": "id",
              "type": "uint256"
            },
            {
              "internalType": "uint256",
              "name": "reportId",
              "type": "uint256"
            },
            {
              "internalType": "address",
              "name": "author",
              "type": "address"
            },
            {
              "internalType": "string",
              "name": "content",
              "type": "string"
            },
            {
              "internalType": "uint256",
              "name": "timestamp",
              "type": "uint256"
            },
            {
              "internalType": "bool",
              "name": "hidden",
              "type": "bool"
            }
          ],
          "internalType": "struct Report.Comment[]",
          "name": "",
          "type": "tuple[]"
        }
      ],
      "stateMutability": "view",
      "type": "function"
    },
    {
      "inputs": [],
      "name": "getAllReports",
      "outputs": [
        {
          "components": [
            {
              "internalType": "uint256",
              "name": "id",
              "type": "uint256"
            },
            {
              "internalType": "address",
              "name": "reporter",
              "type": "address"
            },
            {
              "internalType": "string",
              "name": "ipfsHash",
              "type": "string"
            },
            {
              "internalType": "string",
              "name": "category",
              "type": "string"
            },
            {
              "internalType": "enum Report.ReportStatus",
              "name": "status",
              "type": "uint8"
            },
            {
              "internalType": "uint256",
              "name": "timestamp",
              "type": "uint256"
            },
            {
              "internalType": "bytes32",
              "name": "trackingCode",
              "type": "bytes32"
            }
          ],
          "internalType": "struct Report.ReportData[]",
          "name": "",
          "type": "tuple[]"
        }
      ],
      "stateMutability": "view",
      "type": "function"
    },
    {
      "inputs": [
        {
          "internalType": "uint256",
          "name": "_reportId",
          "type": "uint256"
        }
      ],
      "name": "getComments",
      "outputs": [
        {
          "components": [
            {
              "internalType": "uint256",
              "name": "id",
              "type": "uint256"
            },
            {
              "internalType": "uint256",
              "name": "reportId",
              "type": "uint256"
            },
            {
              "internalType": "address",
              "name": "author",
              "type": "address"
            },
            {
              "internalType": "string",
              "name": "content",
              "type": "string"
            },
            {
              "internalType": "uint256",
              "name": "timestamp",
              "type": "uint256"
            },
            {
              "internalType": "bool",
              "name": "hidden",
              "type": "bool"
            }
          ],
          "internalType": "struct Report.Comment[]",
          "name": "",
          "type": "tuple[]"
        }
      ],
      "stateMutability": "view",
      "type": "function"
    },
    {
      "inputs": [],
      "name": "getPublicReports",
      "outputs": [
        {
          "components": [
            {
              "internalType": "uint256",
              "name": "id",
              "type": "uint256"
            },
            {
              "internalType": "address",
              "name": "reporter",
              "type": "address"
            },
            {
              "internalType": "string",
              "name": "ipfsHash",
              "type": "string"
            },
            {
              "internalType": "string",
              "name": "category",
              "type": "string"
            },
            {
              "internalType": "enum Report.ReportStatus",
              "name": "status",
              "type": "uint8"
            },
            {
              "internalType": "uint256",
              "name": "timestamp",
              "type": "uint256"
            },
            {
              "internalType": "bytes32",
              "name": "trackingCode",
              "type": "bytes32"
            }
          ],
          "internalType": "struct Report.ReportData[]",
          "name": "",
          "type": "tuple[]"
        }
      ],
      "stateMutability": "view",
      "type": "function"
    },
    {
      "inputs": [
        {
          "internalType": "bytes32",
          "name": "_trackingCode",
          "type": "bytes32"
        }
      ],
      "name": "getReportByCode",
      "outputs": [
        {
          "internalType": "uint256",
          "name": "id",
          "type": "uint256"
        },
        {
          "internalType": "string",
          "name": "category",
          "type": "string"
        },
        {
          "internalType": "enum Report.ReportStatus",
          "name": "status",
          "type": "uint8"
        },
        {
          "internalType": "uint256",
          "name": "timestamp",
          "type": "uint256"
        }
      ],
      "stateMutability": "view",
      "type": "function"
    },
    {
      "inputs": [],
      "name": "getReportCount",
      "outputs": [
        {
          "internalType": "uint256",
          "name": "",
          "type": "uint256"
        }
      ],
      "stateMutability": "view",
      "type": "function"
    },
    {
      "inputs": [
        {
          "internalType": "uint256",
          "name": "_reportId",
          "type": "uint256"
        },
        {
          "internalType": "uint256",
          "name": "_commentIndex",
          "type": "uint256"
        }
      ],
      "name": "hideComment",
      "outputs": [],
      "stateMutability": "nonpayable",
      "type": "function"
    },
    {
      "inputs": [
        {
          "internalType": "string",
          "name": "_ipfsHash",
          "type": "string"
        },
        {
          "internalType": "string",
          "name": "_category",
          "type": "string"
        }
      ],
      "name": "submitReport",
      "outputs": [
        {
          "internalType": "bytes32",
          "name": "",
          "type": "bytes32"
        }
      ],
      "stateMutability": "nonpayable",
      "type": "function"
    },
    {
      "inputs": [
        {
          "internalType": "uint256",
          "name": "_reportId",
          "type": "uint256"
        },
        {
          "internalType": "uint256",
          "name": "_commentIndex",
          "type": "uint256"
        }
      ],
      "name": "unhideComment",
      "outputs": [],
      "stateMutability": "nonpayable",
      "type": "function"
    },
    {
      "inputs": [
        {
          "internalType": "uint256",
          "name": "_id",
          "type": "uint256"
        },
        {
          "internalType": "enum Report.ReportStatus",
          "name": "_newStatus",
          "type": "uint8"
        }
      ],
      "name": "updateStatus",
      "outputs": [],
      "stateMutability": "nonpayable",
      "type": "function"
    }
  ],
  "bytecode": "0x608060405234801561001057600080fd5b50336000806101000a81548173ffffffffffffffffffffffffffffffffffffffff021916908373ffffffffffffffffffffffffffffffffffffffff160217905550612d53806100606000396000f3fe608060405234801561001057600080fd5b50600436106100b45760003560e01c8063d2acceda11610071578063d2acceda1461018b578063e0e62d1f146101bb578063f3d3ddfa146101ee578063f851a4401461020c578063fd249fe21461022a578063ff18aae714610248576100b4565b806303926df9146100b957806323edf697146100e95780633a1b3d31146101195780636306186c14610135578063aa7e568314610151578063cad9642b1461016d575b600080fd5b6100d360048036038101906100ce9190611b8a565b610264565b6040516100e09190611dfd565b60405180910390f35b61010360048036038101906100fe9190611b8a565b6104d8565b6040516101109190611dfd565b60405180910390f35b610133600480360381019061012e9190611e44565b6107d9565b005b61014f600480360381019061014a9190611e84565b6109f5565b005b61016b60048036038101906101669190611ff9565b610bb9565b005b610175610e53565b6040516101829190612064565b60405180910390f35b6101a560048036038101906101a0919061207f565b610e5d565b6040516101b29190612110565b60405180910390f35b6101d560048036038101906101d09190612157565b6110c4565b6040516101e59493929190612245565b60405180910390f35b6101f66111fa565b6040516102039190612414565b60405180910390f35b61021461152a565b6040516102219190612445565b60405180910390f35b61023261154e565b60405161023f9190612414565b60405180910390f35b610262600480360381019061025d9190611e84565b6118c6565b005b606060008054906101000a900473ffffffffffffffffffffffffffffffffffffffff1673ffffffffffffffffffffffffffffffffffffffff163373ffffffffffffffffffffffffffffffffffffffff16146102f4576040517f08c379a00000000000000000000000000000000000000000000000000000000081526004016102eb906124ac565b60405180910390fd5b8160008111801561030757506001548111155b610346576040517f08c379a000000000000000000000000000000000000000000000000000000000815260040161033d90612518565b60405180910390fd5b60056000848152602001908152602001600020805480602002602001604051908101604052809291908181526020016000905b828210156104cc57838290600052602060002090600602016040518060c001604052908160008201548152602001600182015481526020016002820160009054906101000a900473ffffffffffffffffffffffffffffffffffffffff1673ffffffffffffffffffffffffffffffffffffffff1673ffffffffffffffffffffffffffffffffffffffff16815260200160038201805461041690612567565b80601f016020809104026020016040519081016040528092919081815260200182805461044290612567565b801561048f5780601f106104645761010080835404028352916020019161048f565b820191906000526020600020905b81548152906001019060200180831161047257829003601f168201915b50505050508152602001600482015481526020016005820160009054906101000a900460ff16151515158152505081526020019060010190610379565b50505050915050919050565b6060816000811180156104ed57506001548111155b61052c576040517f08c379a000000000000000000000000000000000000000000000000000000000815260040161052390612518565b60405180910390fd5b60006005600085815260200190815260200160002090506000805b82805490508110156105a55782818154811061056657610565612598565b5b906000526020600020906006020160050160009054906101000a900460ff16610598578180610594906125f6565b9250505b8080600101915050610547565b5060008167ffffffffffffffff8111156105c2576105c1611ece565b5b6040519080825280602002602001820160405280156105fb57816020015b6105e8611a8a565b8152602001906001900390816105e05790505b5090506000805b84805490508110156107cb5784818154811061062157610620612598565b5b906000526020600020906006020160050160009054906101000a900460ff166107be5784818154811061065757610656612598565b5b90600052602060002090600602016040518060c001604052908160008201548152602001600182015481526020016002820160009054906101000a900473ffffffffffffffffffffffffffffffffffffffff1673ffffffffffffffffffffffffffffffffffffffff1673ffffffffffffffffffffffffffffffffffffffff1681526020016003820180546106ea90612567565b80601f016020809104026020016040519081016040528092919081815260200182805461071690612567565b80156107635780601f1061073857610100808354040283529160200191610763565b820191906000526020600020905b81548152906001019060200180831161074657829003601f168201915b50505050508152602001600482015481526020016005820160009054906101000a900460ff1615151515815250508383815181106107a4576107a3612598565b5b602002602001018190525081806107ba906125f6565b9250505b8080600101915050610602565b508195505050505050919050565b60008054906101000a900473ffffffffffffffffffffffffffffffffffffffff1673ffffffffffffffffffffffffffffffffffffffff163373ffffffffffffffffffffffffffffffffffffffff1614610867576040517f08c379a000000000000000000000000000000000000000000000000000000000815260040161085e906124ac565b60405180910390fd5b8160008111801561087a57506001548111155b6108b9576040517f08c379a00000000000000000000000000000000000000000000000000000000081526004016108b090612518565b60405180910390fd5b60006003600085815260200190815260200160002060040160009054906101000a900460ff169050600260038111156108f5576108f46121ce565b5b816003811115610908576109076121ce565b5b1415801561093a5750600380811115610924576109236121ce565b5b816003811115610937576109366121ce565b5b14155b610979576040517f08c379a00000000000000000000000000000000000000000000000000000000081526004016109709061268a565b60405180910390fd5b826003600086815260200190815260200160002060040160006101000a81548160ff021916908360038111156109b2576109b16121ce565b5b0217905550837f2da7b23ca63c1eb969eee5fae4acb98186abecf5358b0354a82a5183ebca6b2a846040516109e791906126aa565b60405180910390a250505050565b60008054906101000a900473ffffffffffffffffffffffffffffffffffffffff1673ffffffffffffffffffffffffffffffffffffffff163373ffffffffffffffffffffffffffffffffffffffff1614610a83576040517f08c379a0000000000000000000000000000000000000000000000000000000008152600401610a7a906124ac565b60405180910390fd5b81600081118015610a9657506001548111155b610ad5576040517f08c379a0000000000000000000000000000000000000000000000000000000008152600401610acc90612518565b60405180910390fd5b60056000848152602001908152602001600020805490508210610b2d576040517f08c379a0000000000000000000000000000000000000000000000000000000008152600401610b2490612711565b60405180910390fd5b6000600560008581526020019081526020016000208381548110610b5457610b53612598565b5b906000526020600020906006020160050160006101000a81548160ff021916908315150217905550827fd1c57f3e77a6058cd0020b0298fbaf5eccfd783b091426aa237a07691820c71683604051610bac9190612064565b60405180910390a2505050565b81600081118015610bcc57506001548111155b610c0b576040517f08c379a0000000000000000000000000000000000000000000000000000000008152600401610c0290612518565b60405180910390fd5b60026003811115610c1f57610c1e6121ce565b5b6003600085815260200190815260200160002060040160009054906101000a900460ff166003811115610c5557610c546121ce565b5b14610c95576040517f08c379a0000000000000000000000000000000000000000000000000000000008152600401610c8c906127a3565b60405180910390fd5b6000825111610cd9576040517f08c379a0000000000000000000000000000000000000000000000000000000008152600401610cd09061280f565b60405180910390fd5b60026000815480929190610cec906125f6565b9190505550600560008481526020019081526020016000206040518060c0016040528060025481526020018581526020013373ffffffffffffffffffffffffffffffffffffffff168152602001848152602001428152602001600015158152509080600181540180825580915050600190039060005260206000209060060201600090919091909150600082015181600001556020820151816001015560408201518160020160006101000a81548173ffffffffffffffffffffffffffffffffffffffff021916908373ffffffffffffffffffffffffffffffffffffffff1602179055506060820151816003019081610de591906129db565b506080820151816004015560a08201518160050160006101000a81548160ff0219169083151502179055505050827fdb54cde47150062529bc4f2e10c2493c8ae39bc079c9c24f9e365c135098d4bb60025433604051610e46929190612aad565b60405180910390a2505050565b6000600154905090565b600080835111610ea2576040517f08c379a0000000000000000000000000000000000000000000000000000000008152600401610e9990612b22565b60405180910390fd5b6000825111610ee6576040517f08c379a0000000000000000000000000000000000000000000000000000000008152600401610edd90612b8e565b60405180910390fd5b60016000815480929190610ef9906125f6565b9190505550600060015490506000338242604051602001610f1c93929190612c17565b6040516020818303038152906040528051906020012090506040518060e001604052808381526020013373ffffffffffffffffffffffffffffffffffffffff16815260200186815260200185815260200160006003811115610f8157610f806121ce565b5b815260200142815260200182815250600360008481526020019081526020016000206000820151816000015560208201518160010160006101000a81548173ffffffffffffffffffffffffffffffffffffffff021916908373ffffffffffffffffffffffffffffffffffffffff160217905550604082015181600201908161100991906129db565b50606082015181600301908161101f91906129db565b5060808201518160040160006101000a81548160ff0219169083600381111561104b5761104a6121ce565b5b021790555060a0820151816005015560c08201518160060155905050816004600083815260200190815260200160002081905550817f2568e861a4727199839b61282c5e53bcccd5be024ea6e806343ac035ef58332482336040516110b1929190612c54565b60405180910390a2809250505092915050565b6000606060008060006004600087815260200190815260200160002054905060008103611126576040517f08c379a000000000000000000000000000000000000000000000000000000000815260040161111d90612cc9565b60405180910390fd5b60006003600083815260200190815260200160002090508060000154816003018260040160009054906101000a900460ff16836005015482805461116990612567565b80601f016020809104026020016040519081016040528092919081815260200182805461119590612567565b80156111e25780601f106111b7576101008083540402835291602001916111e2565b820191906000526020600020905b8154815290600101906020018083116111c557829003601f168201915b50505050509250955095509550955050509193509193565b606060008054906101000a900473ffffffffffffffffffffffffffffffffffffffff1673ffffffffffffffffffffffffffffffffffffffff163373ffffffffffffffffffffffffffffffffffffffff161461128a576040517f08c379a0000000000000000000000000000000000000000000000000000000008152600401611281906124ac565b60405180910390fd5b600060015467ffffffffffffffff8111156112a8576112a7611ece565b5b6040519080825280602002602001820160405280156112e157816020015b6112ce611ad8565b8152602001906001900390816112c65790505b5090506000600190505b600154811161152257600360008281526020019081526020016000206040518060e0016040529081600082015481526020016001820160009054906101000a900473ffffffffffffffffffffffffffffffffffffffff1673ffffffffffffffffffffffffffffffffffffffff1673ffffffffffffffffffffffffffffffffffffffff16815260200160028201805461138290612567565b80601f01602080910402602001604051908101604052809291908181526020018280546113ae90612567565b80156113fb5780601f106113d0576101008083540402835291602001916113fb565b820191906000526020600020905b8154815290600101906020018083116113de57829003601f168201915b5050505050815260200160038201805461141490612567565b80601f016020809104026020016040519081016040528092919081815260200182805461144090612567565b801561148d5780601f106114625761010080835404028352916020019161148d565b820191906000526020600020905b81548152906001019060200180831161147057829003601f168201915b505050505081526020016004820160009054906101000a900460ff1660038111156114bb576114ba6121ce565b5b60038111156114cd576114cc6121ce565b5b815260200160058201548152602001600682015481525050826001836114f39190612ce9565b8151811061150457611503612598565b5b6020026020010181905250808061151a906125f6565b9150506112eb565b508091505090565b60008054906101000a900473ffffffffffffffffffffffffffffffffffffffff1681565b6060600080600190505b60015481116115d25760026003811115611575576115746121ce565b5b6003600083815260200190815260200160002060040160009054906101000a900460ff1660038111156115ab576115aa6121ce565b5b036115bf5781806115bb906125f6565b9250505b80806115ca906125f6565b915050611558565b5060008167ffffffffffffffff8111156115ef576115ee611ece565b5b60405190808252806020026020018201604052801561162857816020015b611615611ad8565b81526020019060019003908161160d5790505b509050600080600190505b60015481116118bc57600260038111156116505761164f6121ce565b5b6003600083815260200190815260200160002060040160009054906101000a900460ff166003811115611686576116856121ce565b5b036118a957600360008281526020019081526020016000206040518060e0016040529081600082015481526020016001820160009054906101000a900473ffffffffffffffffffffffffffffffffffffffff1673ffffffffffffffffffffffffffffffffffffffff1673ffffffffffffffffffffffffffffffffffffffff16815260200160028201805461171990612567565b80601f016020809104026020016040519081016040528092919081815260200182805461174590612567565b80156117925780601f1061176757610100808354040283529160200191611792565b820191906000526020600020905b81548152906001019060200180831161177557829003601f168201915b505050505081526020016003820180546117ab90612567565b80601f01602080910402602001604051908101604052809291908181526020018280546117d790612567565b80156118245780601f106117f957610100808354040283529160200191611824565b820191906000526020600020905b81548152906001019060200180831161180757829003601f168201915b505050505081526020016004820160009054906101000a900460ff166003811115611852576118516121ce565b5b6003811115611864576118636121ce565b5b81526020016005820154815260200160068201548152505083838151811061188f5761188e612598565b5b602002602001018190525081806118a5906125f6565b9250505b80806118b4906125f6565b915050611633565b5081935050505090565b60008054906101000a900473ffffffffffffffffffffffffffffffffffffffff1673ffffffffffffffffffffffffffffffffffffffff163373ffffffffffffffffffffffffffffffffffffffff1614611954576040517f08c379a000000000000000000000000000000000000000000000000000000000815260040161194b906124ac565b60405180910390fd5b8160008111801561196757506001548111155b6119a6576040517f08c379a000000000000000000000000000000000000000000000000000000000815260040161199d90612518565b60405180910390fd5b600560008481526020019081526020016000208054905082106119fe576040517f08c379a00000000000000000000000000000000000000000000000000000000081526004016119f590612711565b60405180910390fd5b6001600560008581526020019081526020016000208381548110611a2557611a24612598565b5b906000526020600020906006020160050160006101000a81548160ff021916908315150217905550827fa74162da233540e21116e0b56e4228060ec19ab01d369ff90fcc2082b524e2e483604051611a7d9190612064565b60405180910390a2505050565b6040518060c001604052806000815260200160008152602001600073ffffffffffffffffffffffffffffffffffffffff16815260200160608152602001600081526020016000151581525090565b6040518060e0016040528060008152602001600073ffffffffffffffffffffffffffffffffffffffff168152602001606081526020016060815260200160006003811115611b2957611b286121ce565b5b815260200160008152602001600080191681525090565b6000604051905090565b600080fd5b600080fd5b6000819050919050565b611b6781611b54565b8114611b7257600080fd5b50565b600081359050611b8481611b5e565b92915050565b600060208284031215611ba057611b9f611b4a565b5b6000611bae84828501611b75565b91505092915050565b600081519050919050565b600082825260208201905092915050565b6000819050602082019050919050565b611bec81611b54565b82525050565b600073ffffffffffffffffffffffffffffffffffffffff82169050919050565b6000611c1d82611bf2565b9050919050565b611c2d81611c12565b82525050565b600081519050919050565b600082825260208201905092915050565b60005b83811015611c6d578082015181840152602081019050611c52565b60008484015250505050565b6000601f19601f8301169050919050565b6000611c9582611c33565b611c9f8185611c3e565b9350611caf818560208601611c4f565b611cb881611c79565b840191505092915050565b60008115159050919050565b611cd881611cc3565b82525050565b600060c083016000830151611cf66000860182611be3565b506020830151611d096020860182611be3565b506040830151611d1c6040860182611c24565b5060608301518482036060860152611d348282611c8a565b9150506080830151611d496080860182611be3565b5060a0830151611d5c60a0860182611ccf565b508091505092915050565b6000611d738383611cde565b905092915050565b6000602082019050919050565b6000611d9382611bb7565b611d9d8185611bc2565b935083602082028501611daf85611bd3565b8060005b85811015611deb5784840389528151611dcc8582611d67565b9450611dd783611d7b565b925060208a01995050600181019050611db3565b50829750879550505050505092915050565b60006020820190508181036000830152611e178184611d88565b905092915050565b60048110611e2c57600080fd5b50565b600081359050611e3e81611e1f565b92915050565b60008060408385031215611e5b57611e5a611b4a565b5b6000611e6985828601611b75565b9250506020611e7a85828601611e2f565b9150509250929050565b60008060408385031215611e9b57611e9a611b4a565b5b6000611ea985828601611b75565b9250506020611eba85828601611b75565b9150509250929050565b600080fd5b600080fd5b7f4e487b7100000000000000000000000000000000000000000000000000000000600052604160045260246000fd5b611f0682611c79565b810181811067ffffffffffffffff82111715611f2557611f24611ece565b5b80604052505050565b6000611f38611b40565b9050611f448282611efd565b919050565b600067ffffffffffffffff821115611f6457611f63611ece565b5b611f6d82611c79565b9050602081019050919050565b82818337600083830152505050565b6000611f9c611f9784611f49565b611f2e565b905082815260208101848484011115611fb857611fb7611ec9565b5b611fc3848285611f7a565b509392505050565b600082601f830112611fe057611fdf611ec4565b5b8135611ff0848260208601611f89565b91505092915050565b600080604083850312156120105761200f611b4a565b5b600061201e85828601611b75565b925050602083013567ffffffffffffffff81111561203f5761203e611b4f565b5b61204b85828601611fcb565b9150509250929050565b61205e81611b54565b82525050565b60006020820190506120796000830184612055565b92915050565b6000806040838503121561209657612095611b4a565b5b600083013567ffffffffffffffff8111156120b4576120b3611b4f565b5b6120c085828601611fcb565b925050602083013567ffffffffffffffff8111156120e1576120e0611b4f565b5b6120ed85828601611fcb565b9150509250929050565b6000819050919050565b61210a816120f7565b82525050565b60006020820190506121256000830184612101565b92915050565b612134816120f7565b811461213f57600080fd5b50565b6000813590506121518161212b565b92915050565b60006020828403121561216d5761216c611b4a565b5b600061217b84828501612142565b91505092915050565b600082825260208201905092915050565b60006121a082611c33565b6121aa8185612184565b93506121ba818560208601611c4f565b6121c381611c79565b840191505092915050565b7f4e487b7100000000000000000000000000000000000000000000000000000000600052602160045260246000fd5b6004811061220e5761220d6121ce565b5b50565b600081905061221f826121fd565b919050565b600061222f82612211565b9050919050565b61223f81612224565b82525050565b600060808201905061225a6000830187612055565b818103602083015261226c8186612195565b905061227b6040830185612236565b6122886060830184612055565b95945050505050565b600081519050919050565b600082825260208201905092915050565b6000819050602082019050919050565b6122c681612224565b82525050565b6122d5816120f7565b82525050565b600060e0830160008301516122f36000860182611be3565b5060208301516123066020860182611c24565b506040830151848203604086015261231e8282611c8a565b915050606083015184820360608601526123388282611c8a565b915050608083015161234d60808601826122bd565b5060a083015161236060a0860182611be3565b5060c083015161237360c08601826122cc565b508091505092915050565b600061238a83836122db565b905092915050565b6000602082019050919050565b60006123aa82612291565b6123b4818561229c565b9350836020820285016123c6856122ad565b8060005b8581101561240257848403895281516123e3858261237e565b94506123ee83612392565b925060208a019950506001810190506123ca565b50829750879550505050505092915050565b6000602082019050818103600083015261242e818461239f565b905092915050565b61243f81611c12565b82525050565b600060208201905061245a6000830184612436565b92915050565b7f4f6e6c792061646d696e2063616e2063616c6c20746869730000000000000000600082015250565b6000612496601883612184565b91506124a182612460565b602082019050919050565b600060208201905081810360008301526124c581612489565b9050919050565b7f5265706f727420646f6573206e6f742065786973740000000000000000000000600082015250565b6000612502601583612184565b915061250d826124cc565b602082019050919050565b60006020820190508181036000830152612531816124f5565b9050919050565b7f4e487b7100000000000000000000000000000000000000000000000000000000600052602260045260246000fd5b6000600282049050600182168061257f57607f821691505b60208210810361259257612591612538565b5b50919050565b7f4e487b7100000000000000000000000000000000000000000000000000000000600052603260045260246000fd5b7f4e487b7100000000000000000000000000000000000000000000000000000000600052601160045260246000fd5b600061260182611b54565b91507fffffffffffffffffffffffffffffffffffffffffffffffffffffffffffffffff8203612633576126326125c7565b5b600182019050919050565b7f43616e6e6f74206368616e67652066696e616c20737461747573000000000000600082015250565b6000612674601a83612184565b915061267f8261263e565b602082019050919050565b600060208201905081810360008301526126a381612667565b9050919050565b60006020820190506126bf6000830184612236565b92915050565b7f436f6d6d656e7420646f6573206e6f7420657869737400000000000000000000600082015250565b60006126fb601683612184565b9150612706826126c5565b602082019050919050565b6000602082019050818103600083015261272a816126ee565b9050919050565b7f43616e206f6e6c7920636f6d6d656e74206f6e207265736f6c7665642072657060008201527f6f72747300000000000000000000000000000000000000000000000000000000602082015250565b600061278d602483612184565b915061279882612731565b604082019050919050565b600060208201905081810360008301526127bc81612780565b9050919050565b7f436f6e74656e7420697320726571756972656400000000000000000000000000600082015250565b60006127f9601383612184565b9150612804826127c3565b602082019050919050565b60006020820190508181036000830152612828816127ec565b9050919050565b60008190508160005260206000209050919050565b60006020601f8301049050919050565b600082821b905092915050565b6000600883026128917fffffffffffffffffffffffffffffffffffffffffffffffffffffffffffffffff82612854565b61289b8683612854565b95508019841693508086168417925050509392505050565b6000819050919050565b60006128d86128d36128ce84611b54565b6128b3565b611b54565b9050919050565b6000819050919050565b6128f2836128bd565b6129066128fe826128df565b848454612861565b825550505050565b600090565b61291b61290e565b6129268184846128e9565b505050565b5b8181101561294a5761293f600082612913565b60018101905061292c565b5050565b601f82111561298f576129608161282f565b61296984612844565b81016020851015612978578190505b61298c61298485612844565b83018261292b565b50505b505050565b600082821c905092915050565b60006129b260001984600802612994565b1980831691505092915050565b60006129cb83836129a1565b9150826002028217905092915050565b6129e482611c33565b67ffffffffffffffff8111156129fd576129fc611ece565b5b612a078254612567565b612a1282828561294e565b600060209050601f831160018114612a455760008415612a33578287015190505b612a3d85826129bf565b865550612aa5565b601f198416612a538661282f565b60005b82811015612a7b57848901518255600182019150602085019450602081019050612a56565b86831015612a985784890151612a94601f8916826129a1565b8355505b6001600288020188555050505b505050505050565b6000604082019050612ac26000830185612055565b612acf6020830184612436565b9392505050565b7f4950465320686173682069732072657175697265640000000000000000000000600082015250565b6000612b0c601583612184565b9150612b1782612ad6565b602082019050919050565b60006020820190508181036000830152612b3b81612aff565b9050919050565b7f43617465676f7279206973207265717569726564000000000000000000000000600082015250565b6000612b78601483612184565b9150612b8382612b42565b602082019050919050565b60006020820190508181036000830152612ba781612b6b565b9050919050565b60008160601b9050919050565b6000612bc682612bae565b9050919050565b6000612bd882612bbb565b9050919050565b612bf0612beb82611c12565b612bcd565b82525050565b6000819050919050565b612c11612c0c82611b54565b612bf6565b82525050565b6000612c238286612bdf565b601482019150612c338285612c00565b602082019150612c438284612c00565b602082019150819050949350505050565b6000604082019050612c696000830185612101565b612c766020830184612436565b9392505050565b7f496e76616c696420747261636b696e6720636f64650000000000000000000000600082015250565b6000612cb3601583612184565b9150612cbe82612c7d565b602082019050919050565b60006020820190508181036000830152612ce281612ca6565b9050919050565b6000612cf482611b54565b9150612cff83611b54565b9250828203905081811115612d1757612d166125c7565b5b9291505056fea26469706673582212209ea4ecdb94d41468b56818c734b629e3e34d06445ea89fdab19d5f45793780d564736f6c63430008180033",
  "linkReferences": {},
  "deployedLinkReferences": {}
}