{
  "_format": "hh-sol-artifact-1",
  "contractName": "Report",
  "sourceName": "contracts/Report.sol",
  "abi": [
    {
      "inputs": [],
      "stateMutability": "nonpayable",
      "type": "constructor"
    },
    {
      "anonymous": false,
      "inputs": [
        {
          "indexed": true,
          "internalType": "uint256",
          "name": "id",
          "type": "uint256"
        },
        {
          "indexed": false,
          "internalType": "bytes32",
          "name": "trackingCode",
          "type": "bytes32"
        },
        {
          "indexed": false,
          "internalType": "address",
          "name": "reporter",
          "type": "address"
        }
      ],
      "name": "ReportSubmitted",
      "type": "event"
    },
    {
      "anonymous": false,
      "inputs": [
        {
          "indexed": true,
          "internalType": "uint256",
          "name": "id",
          "type": "uint256"
        },
        {
          "indexed": false,
          "internalType": "enum Report.ReportStatus",
          "name": "newStatus",
          "type": "uint8"
        }
      ],
      "name": "StatusUpdated",
      "type": "event"
    },
    {
      "inputs": [],
      "name": "admin",
      "outputs": [
        {
          "internalType": "address",
          "name": "",
          "type": "address"
        }
      ],
      "stateMutability": "view",
      "type": "function"
    },
    {
      "inputs": [],
      "name": "getAllReports",
      "outputs": [
        {
          "components": [
            {
              "internalType": "uint256",
              "name": "id",
              "type": "uint256"
            },
            {
              "internalType": "address",
              "name": "reporter",
              "type": "address"
            },
            {
              "internalType": "string",
              "name": "ipfsHash",
              "type": "string"
            },
            {
              "internalType": "string",
              "name": "category",
              "type": "string"
            },
            {
              "internalType": "enum Report.ReportStatus",
              "name": "status",
              "type": "uint8"
            },
            {
              "internalType": "uint256",
              "name": "timestamp",
              "type": "uint256"
            },
            {
              "internalType": "bytes32",
              "name": "trackingCode",
              "type": "bytes32"
            }
          ],
          "internalType": "struct Report.ReportData[]",
          "name": "",
          "type": "tuple[]"
        }
      ],
      "stateMutability": "view",
      "type": "function"
    },
    {
      "inputs": [],
      "name": "getPublicReports",
      "outputs": [
        {
          "components": [
            {
              "internalType": "uint256",
              "name": "id",
              "type": "uint256"
            },
            {
              "internalType": "address",
              "name": "reporter",
              "type": "address"
            },
            {
              "internalType": "string",
              "name": "ipfsHash",
              "type": "string"
            },
            {
              "internalType": "string",
              "name": "category",
              "type": "string"
            },
            {
              "internalType": "enum Report.ReportStatus",
              "name": "status",
              "type": "uint8"
            },
            {
              "internalType": "uint256",
              "name": "timestamp",
              "type": "uint256"
            },
            {
              "internalType": "bytes32",
              "name": "trackingCode",
              "type": "bytes32"
            }
          ],
          "internalType": "struct Report.ReportData[]",
          "name": "",
          "type": "tuple[]"
        }
      ],
      "stateMutability": "view",
      "type": "function"
    },
    {
      "inputs": [
        {
          "internalType": "bytes32",
          "name": "_trackingCode",
          "type": "bytes32"
        }
      ],
      "name": "getReportByCode",
      "outputs": [
        {
          "internalType": "uint256",
          "name": "id",
          "type": "uint256"
        },
        {
          "internalType": "string",
          "name": "category",
          "type": "string"
        },
        {
          "internalType": "enum Report.ReportStatus",
          "name": "status",
          "type": "uint8"
        },
        {
          "internalType": "uint256",
          "name": "timestamp",
          "type": "uint256"
        }
      ],
      "stateMutability": "view",
      "type": "function"
    },
    {
      "inputs": [],
      "name": "getReportCount",
      "outputs": [
        {
          "internalType": "uint256",
          "name": "",
          "type": "uint256"
        }
      ],
      "stateMutability": "view",
      "type": "function"
    },
    {
      "inputs": [
        {
          "internalType": "string",
          "name": "_ipfsHash",
          "type": "string"
        },
        {
          "internalType": "string",
          "name": "_category",
          "type": "string"
        }
      ],
      "name": "submitReport",
      "outputs": [
        {
          "internalType": "bytes32",
          "name": "",
          "type": "bytes32"
        }
      ],
      "stateMutability": "nonpayable",
      "type": "function"
    },
    {
      "inputs": [
        {
          "internalType": "uint256",
          "name": "_id",
          "type": "uint256"
        },
        {
          "internalType": "enum Report.ReportStatus",
          "name": "_newStatus",
          "type": "uint8"
        }
      ],
      "name": "updateStatus",
      "outputs": [],
      "stateMutability": "nonpayable",
      "type": "function"
    }
  ],
  "bytecode": "0x608060405234801561001057600080fd5b50336000806101000a81548173ffffffffffffffffffffffffffffffffffffffff021916908373ffffffffffffffffffffffffffffffffffffffff160217905550611cd1806100606000396000f3fe608060405234801561001057600080fd5b506004361061007d5760003560e01c8063e0e62d1f1161005b578063e0e62d1f146100ec578063f3d3ddfa1461011f578063f851a4401461013d578063fd249fe21461015b5761007d565b80633a1b3d3114610082578063cad9642b1461009e578063d2acceda146100bc575b600080fd5b61009c60048036038101906100979190610f11565b610179565b005b6100a6610395565b6040516100b39190610f60565b60405180910390f35b6100d660048036038101906100d191906110c1565b61039f565b6040516100e39190611152565b60405180910390f35b61010660048036038101906101019190611199565b610606565b60405161011694939291906112bc565b60405180910390f35b61012761073c565b6040516101349190611525565b60405180910390f35b610145610a6c565b6040516101529190611556565b60405180910390f35b610163610a90565b6040516101709190611525565b60405180910390f35b60008054906101000a900473ffffffffffffffffffffffffffffffffffffffff1673ffffffffffffffffffffffffffffffffffffffff163373ffffffffffffffffffffffffffffffffffffffff1614610207576040517f08c379a00000000000000000000000000000000000000000000000000000000081526004016101fe906115bd565b60405180910390fd5b8160008111801561021a57506001548111155b610259576040517f08c379a000000000000000000000000000000000000000000000000000000000815260040161025090611629565b60405180910390fd5b60006002600085815260200190815260200160002060040160009054906101000a900460ff1690506002600381111561029557610294611245565b5b8160038111156102a8576102a7611245565b5b141580156102da57506003808111156102c4576102c3611245565b5b8160038111156102d7576102d6611245565b5b14155b610319576040517f08c379a000000000000000000000000000000000000000000000000000000000815260040161031090611695565b60405180910390fd5b826002600086815260200190815260200160002060040160006101000a81548160ff0219169083600381111561035257610351611245565b5b0217905550837f2da7b23ca63c1eb969eee5fae4acb98186abecf5358b0354a82a5183ebca6b2a8460405161038791906116b5565b60405180910390a250505050565b6000600154905090565b6000808351116103e4576040517f08c379a00000000000000000000000000000000000000000000000000000000081526004016103db9061171c565b60405180910390fd5b6000825111610428576040517f08c379a000000000000000000000000000000000000000000000000000000000815260040161041f90611788565b60405180910390fd5b6001600081548092919061043b906117d7565b919050555060006001549050600033824260405160200161045e93929190611888565b6040516020818303038152906040528051906020012090506040518060e001604052808381526020013373ffffffffffffffffffffffffffffffffffffffff168152602001868152602001858152602001600060038111156104c3576104c2611245565b5b815260200142815260200182815250600260008481526020019081526020016000206000820151816000015560208201518160010160006101000a81548173ffffffffffffffffffffffffffffffffffffffff021916908373ffffffffffffffffffffffffffffffffffffffff160217905550604082015181600201908161054b9190611ad1565b5060608201518160030190816105619190611ad1565b5060808201518160040160006101000a81548160ff0219169083600381111561058d5761058c611245565b5b021790555060a0820151816005015560c08201518160060155905050816003600083815260200190815260200160002081905550817f2568e861a4727199839b61282c5e53bcccd5be024ea6e806343ac035ef58332482336040516105f3929190611ba3565b60405180910390a2809250505092915050565b6000606060008060006003600087815260200190815260200160002054905060008103610668576040517f08c379a000000000000000000000000000000000000000000000000000000000815260040161065f90611c18565b60405180910390fd5b60006002600083815260200190815260200160002090508060000154816003018260040160009054906101000a900460ff1683600501548280546106ab906118f4565b80601f01602080910402602001604051908101604052809291908181526020018280546106d7906118f4565b80156107245780601f106106f957610100808354040283529160200191610724565b820191906000526020600020905b81548152906001019060200180831161070757829003601f168201915b50505050509250955095509550955050509193509193565b606060008054906101000a900473ffffffffffffffffffffffffffffffffffffffff1673ffffffffffffffffffffffffffffffffffffffff163373ffffffffffffffffffffffffffffffffffffffff16146107cc576040517f08c379a00000000000000000000000000000000000000000000000000000000081526004016107c3906115bd565b60405180910390fd5b600060015467ffffffffffffffff8111156107ea576107e9610f96565b5b60405190808252806020026020018201604052801561082357816020015b610810610e3a565b8152602001906001900390816108085790505b5090506000600190505b6001548111610a6457600260008281526020019081526020016000206040518060e0016040529081600082015481526020016001820160009054906101000a900473ffffffffffffffffffffffffffffffffffffffff1673ffffffffffffffffffffffffffffffffffffffff1673ffffffffffffffffffffffffffffffffffffffff1681526020016002820180546108c4906118f4565b80601f01602080910402602001604051908101604052809291908181526020018280546108f0906118f4565b801561093d5780601f106109125761010080835404028352916020019161093d565b820191906000526020600020905b81548152906001019060200180831161092057829003601f168201915b50505050508152602001600382018054610956906118f4565b80601f0160208091040260200160405190810160405280929190818152602001828054610982906118f4565b80156109cf5780601f106109a4576101008083540402835291602001916109cf565b820191906000526020600020905b8154815290600101906020018083116109b257829003601f168201915b505050505081526020016004820160009054906101000a900460ff1660038111156109fd576109fc611245565b5b6003811115610a0f57610a0e611245565b5b81526020016005820154815260200160068201548152505082600183610a359190611c38565b81518110610a4657610a45611c6c565b5b60200260200101819052508080610a5c906117d7565b91505061082d565b508091505090565b60008054906101000a900473ffffffffffffffffffffffffffffffffffffffff1681565b6060600080600190505b6001548111610b145760026003811115610ab757610ab6611245565b5b6002600083815260200190815260200160002060040160009054906101000a900460ff166003811115610aed57610aec611245565b5b03610b01578180610afd906117d7565b9250505b8080610b0c906117d7565b915050610a9a565b5060008167ffffffffffffffff811115610b3157610b30610f96565b5b604051908082528060200260200182016040528015610b6a57816020015b610b57610e3a565b815260200190600190039081610b4f5790505b509050600080600190505b6001548111610e305760026003811115610b9257610b91611245565b5b6002600083815260200190815260200160002060040160009054906101000a900460ff166003811115610bc857610bc7611245565b5b03610e1d57600260008281526020019081526020016000206040518060e0016040529081600082015481526020016001820160009054906101000a900473ffffffffffffffffffffffffffffffffffffffff1673ffffffffffffffffffffffffffffffffffffffff1673ffffffffffffffffffffffffffffffffffffffff168152602001600282018054610c5b906118f4565b80601f0160208091040260200160405190810160405280929190818152602001828054610c87906118f4565b8015610cd45780601f10610ca957610100808354040283529160200191610cd4565b820191906000526020600020905b815481529060010190602001808311610cb757829003601f168201915b50505050508152602001600382018054610ced906118f4565b80601f0160208091040260200160405190810160405280929190818152602001828054610d19906118f4565b8015610d665780601f10610d3b57610100808354040283529160200191610d66565b820191906000526020600020905b815481529060010190602001808311610d4957829003601f168201915b505050505081526020016004820160009054906101000a900460ff166003811115610d9457610d93611245565b5b6003811115610da657610da5611245565b5b815260200160058201548152602001600682015481525050838381518110610dd157610dd0611c6c565b5b602002602001018190525060405180602001604052806000815250838381518110610dff57610dfe611c6c565b5b6020026020010151604001819052508180610e19906117d7565b9250505b8080610e28906117d7565b915050610b75565b5081935050505090565b6040518060e0016040528060008152602001600073ffffffffffffffffffffffffffffffffffffffff168152602001606081526020016060815260200160006003811115610e8b57610e8a611245565b5b815260200160008152602001600080191681525090565b6000604051905090565b600080fd5b600080fd5b6000819050919050565b610ec981610eb6565b8114610ed457600080fd5b50565b600081359050610ee681610ec0565b92915050565b60048110610ef957600080fd5b50565b600081359050610f0b81610eec565b92915050565b60008060408385031215610f2857610f27610eac565b5b6000610f3685828601610ed7565b9250506020610f4785828601610efc565b9150509250929050565b610f5a81610eb6565b82525050565b6000602082019050610f756000830184610f51565b92915050565b600080fd5b600080fd5b6000601f19601f8301169050919050565b7f4e487b7100000000000000000000000000000000000000000000000000000000600052604160045260246000fd5b610fce82610f85565b810181811067ffffffffffffffff82111715610fed57610fec610f96565b5b80604052505050565b6000611000610ea2565b905061100c8282610fc5565b919050565b600067ffffffffffffffff82111561102c5761102b610f96565b5b61103582610f85565b9050602081019050919050565b82818337600083830152505050565b600061106461105f84611011565b610ff6565b9050828152602081018484840111156110805761107f610f80565b5b61108b848285611042565b509392505050565b600082601f8301126110a8576110a7610f7b565b5b81356110b8848260208601611051565b91505092915050565b600080604083850312156110d8576110d7610eac565b5b600083013567ffffffffffffffff8111156110f6576110f5610eb1565b5b61110285828601611093565b925050602083013567ffffffffffffffff81111561112357611122610eb1565b5b61112f85828601611093565b9150509250929050565b6000819050919050565b61114c81611139565b82525050565b60006020820190506111676000830184611143565b92915050565b61117681611139565b811461118157600080fd5b50565b6000813590506111938161116d565b92915050565b6000602082840312156111af576111ae610eac565b5b60006111bd84828501611184565b91505092915050565b600081519050919050565b600082825260208201905092915050565b60005b838110156112005780820151818401526020810190506111e5565b60008484015250505050565b6000611217826111c6565b61122181856111d1565b93506112318185602086016111e2565b61123a81610f85565b840191505092915050565b7f4e487b7100000000000000000000000000000000000000000000000000000000600052602160045260246000fd5b6004811061128557611284611245565b5b50565b600081905061129682611274565b919050565b60006112a682611288565b9050919050565b6112b68161129b565b82525050565b60006080820190506112d16000830187610f51565b81810360208301526112e3818661120c565b90506112f260408301856112ad565b6112ff6060830184610f51565b95945050505050565b600081519050919050565b600082825260208201905092915050565b6000819050602082019050919050565b61133d81610eb6565b82525050565b600073ffffffffffffffffffffffffffffffffffffffff82169050919050565b600061136e82611343565b9050919050565b61137e81611363565b82525050565b600082825260208201905092915050565b60006113a0826111c6565b6113aa8185611384565b93506113ba8185602086016111e2565b6113c381610f85565b840191505092915050565b6113d78161129b565b82525050565b6113e681611139565b82525050565b600060e0830160008301516114046000860182611334565b5060208301516114176020860182611375565b506040830151848203604086015261142f8282611395565b915050606083015184820360608601526114498282611395565b915050608083015161145e60808601826113ce565b5060a083015161147160a0860182611334565b5060c083015161148460c08601826113dd565b508091505092915050565b600061149b83836113ec565b905092915050565b6000602082019050919050565b60006114bb82611308565b6114c58185611313565b9350836020820285016114d785611324565b8060005b8581101561151357848403895281516114f4858261148f565b94506114ff836114a3565b925060208a019950506001810190506114db565b50829750879550505050505092915050565b6000602082019050818103600083015261153f81846114b0565b905092915050565b61155081611363565b82525050565b600060208201905061156b6000830184611547565b92915050565b7f4f6e6c792061646d696e2063616e2063616c6c20746869730000000000000000600082015250565b60006115a76018836111d1565b91506115b282611571565b602082019050919050565b600060208201905081810360008301526115d68161159a565b9050919050565b7f5265706f727420646f6573206e6f742065786973740000000000000000000000600082015250565b60006116136015836111d1565b915061161e826115dd565b602082019050919050565b6000602082019050818103600083015261164281611606565b9050919050565b7f43616e6e6f74206368616e67652066696e616c20737461747573000000000000600082015250565b600061167f601a836111d1565b915061168a82611649565b602082019050919050565b600060208201905081810360008301526116ae81611672565b9050919050565b60006020820190506116ca60008301846112ad565b92915050565b7f4950465320686173682069732072657175697265640000000000000000000000600082015250565b60006117066015836111d1565b9150611711826116d0565b602082019050919050565b60006020820190508181036000830152611735816116f9565b9050919050565b7f43617465676f7279206973207265717569726564000000000000000000000000600082015250565b60006117726014836111d1565b915061177d8261173c565b602082019050919050565b600060208201905081810360008301526117a181611765565b9050919050565b7f4e487b7100000000000000000000000000000000000000000000000000000000600052601160045260246000fd5b60006117e282610eb6565b91507fffffffffffffffffffffffffffffffffffffffffffffffffffffffffffffffff8203611814576118136117a8565b5b600182019050919050565b60008160601b9050919050565b60006118378261181f565b9050919050565b60006118498261182c565b9050919050565b61186161185c82611363565b61183e565b82525050565b6000819050919050565b61188261187d82610eb6565b611867565b82525050565b60006118948286611850565b6014820191506118a48285611871565b6020820191506118b48284611871565b602082019150819050949350505050565b7f4e487b7100000000000000000000000000000000000000000000000000000000600052602260045260246000fd5b6000600282049050600182168061190c57607f821691505b60208210810361191f5761191e6118c5565b5b50919050565b60008190508160005260206000209050919050565b60006020601f8301049050919050565b600082821b905092915050565b6000600883026119877fffffffffffffffffffffffffffffffffffffffffffffffffffffffffffffffff8261194a565b611991868361194a565b95508019841693508086168417925050509392505050565b6000819050919050565b60006119ce6119c96119c484610eb6565b6119a9565b610eb6565b9050919050565b6000819050919050565b6119e8836119b3565b6119fc6119f4826119d5565b848454611957565b825550505050565b600090565b611a11611a04565b611a1c8184846119df565b505050565b5b81811015611a4057611a35600082611a09565b600181019050611a22565b5050565b601f821115611a8557611a5681611925565b611a5f8461193a565b81016020851015611a6e578190505b611a82611a7a8561193a565b830182611a21565b50505b505050565b600082821c905092915050565b6000611aa860001984600802611a8a565b1980831691505092915050565b6000611ac18383611a97565b9150826002028217905092915050565b611ada826111c6565b67ffffffffffffffff811115611af357611af2610f96565b5b611afd82546118f4565b611b08828285611a44565b600060209050601f831160018114611b3b5760008415611b29578287015190505b611b338582611ab5565b865550611b9b565b601f198416611b4986611925565b60005b82811015611b7157848901518255600182019150602085019450602081019050611b4c565b86831015611b8e5784890151611b8a601f891682611a97565b8355505b6001600288020188555050505b505050505050565b6000604082019050611bb86000830185611143565b611bc56020830184611547565b9392505050565b7f496e76616c696420747261636b696e6720636f64650000000000000000000000600082015250565b6000611c026015836111d1565b9150611c0d82611bcc565b602082019050919050565b60006020820190508181036000830152611c3181611bf5565b9050919050565b6000611c4382610eb6565b9150611c4e83610eb6565b9250828203905081811115611c6657611c656117a8565b5b92915050565b7f4e487b7100000000000000000000000000000000000000000000000000000000600052603260045260246000fdfea2646970667358221220df33ce2214e1443f7eb6c08ac4505c5d4665a18e929d387498dd3630faf4f54564736f6c63430008180033",
  "linkReferences": {},
  "deployedLinkReferences": {}
}