{
  "_format": "hh-sol-artifact-1",
  "contractName": "Report",
  "sourceName": "contracts/Report.sol",
  "abi": [
    {
      "inputs": [],
      "stateMutability": "nonpayable",
      "type": "constructor"
    },
    {
      "anonymous": false,
      "inputs": [
        {
          "indexed": true,
          "internalType": "uint256",
          "name": "reportId",
          "type": "uint256"
        },
        {
          "indexed": false,
          "internalType": "uint256",
          "name": "commentId",
          "type": "uint256"
        },
        {
          "indexed": false,
          "internalType": "address",
          "name": "author",
          "type": "address"
        }
      ],
      "name": "CommentAdded",
      "type": "event"
    },
    {
      "anonymous": false,
      "inputs": [
        {
          "indexed": true,
          "internalType": "uint256",
          "name": "reportId",
          "type": "uint256"
        },
        {
          "indexed": false,
          "internalType": "uint256",
          "name": "commentIndex",
          "type": "uint256"
        }
      ],
      "name": "CommentHidden",
      "type": "event"
    },
    {
      "anonymous": false,
      "inputs": [
        {
          "indexed": true,
          "internalType": "uint256",
          "name": "reportId",
          "type": "uint256"
        },
        {
          "indexed": false,
          "internalType": "uint256",
          "name": "commentIndex",
          "type": "uint256"
        }
      ],
      "name": "CommentUnhidden",
      "type": "event"
    },
    {
      "anonymous": false,
      "inputs": [
        {
          "indexed": true,
          "internalType": "address",
          "name": "donor",
          "type": "address"
        },
        {
          "indexed": false,
          "internalType": "uint256",
          "name": "amount",
          "type": "uint256"
        }
      ],
      "name": "Donated",
      "type": "event"
    },
    {
      "anonymous": false,
      "inputs": [
        {
          "indexed": true,
          "internalType": "uint256",
          "name": "id",
          "type": "uint256"
        },
        {
          "indexed": false,
          "internalType": "bytes32",
          "name": "trackingCode",
          "type": "bytes32"
        },
        {
          "indexed": false,
          "internalType": "address",
          "name": "reporter",
          "type": "address"
        }
      ],
      "name": "ReportSubmitted",
      "type": "event"
    },
    {
      "anonymous": false,
      "inputs": [
        {
          "indexed": true,
          "internalType": "uint256",
          "name": "id",
          "type": "uint256"
        },
        {
          "indexed": false,
          "internalType": "enum Report.ReportStatus",
          "name": "newStatus",
          "type": "uint8"
        }
      ],
      "name": "StatusUpdated",
      "type": "event"
    },
    {
      "inputs": [
        {
          "internalType": "uint256",
          "name": "_reportId",
          "type": "uint256"
        },
        {
          "internalType": "string",
          "name": "_content",
          "type": "string"
        }
      ],
      "name": "addComment",
      "outputs": [],
      "stateMutability": "nonpayable",
      "type": "function"
    },
    {
      "inputs": [],
      "name": "admin",
      "outputs": [
        {
          "internalType": "address",
          "name": "",
          "type": "address"
        }
      ],
      "stateMutability": "view",
      "type": "function"
    },
    {
      "inputs": [],
      "name": "donate",
      "outputs": [],
      "stateMutability": "payable",
      "type": "function"
    },
    {
      "inputs": [
        {
          "internalType": "uint256",
          "name": "_reportId",
          "type": "uint256"
        }
      ],
      "name": "getAllComments",
      "outputs": [
        {
          "components": [
            {
              "internalType": "uint256",
              "name": "id",
              "type": "uint256"
            },
            {
              "internalType": "uint256",
              "name": "reportId",
              "type": "uint256"
            },
            {
              "internalType": "address",
              "name": "author",
              "type": "address"
            },
            {
              "internalType": "string",
              "name": "content",
              "type": "string"
            },
            {
              "internalType": "uint256",
              "name": "timestamp",
              "type": "uint256"
            },
            {
              "internalType": "bool",
              "name": "hidden",
              "type": "bool"
            }
          ],
          "internalType": "struct Report.Comment[]",
          "name": "",
          "type": "tuple[]"
        }
      ],
      "stateMutability": "view",
      "type": "function"
    },
    {
      "inputs": [],
      "name": "getAllReports",
      "outputs": [
        {
          "components": [
            {
              "internalType": "uint256",
              "name": "id",
              "type": "uint256"
            },
            {
              "internalType": "address",
              "name": "reporter",
              "type": "address"
            },
            {
              "internalType": "string",
              "name": "ipfsHash",
              "type": "string"
            },
            {
              "internalType": "string",
              "name": "category",
              "type": "string"
            },
            {
              "internalType": "enum Report.ReportStatus",
              "name": "status",
              "type": "uint8"
            },
            {
              "internalType": "uint256",
              "name": "timestamp",
              "type": "uint256"
            },
            {
              "internalType": "bytes32",
              "name": "trackingCode",
              "type": "bytes32"
            }
          ],
          "internalType": "struct Report.ReportData[]",
          "name": "",
          "type": "tuple[]"
        }
      ],
      "stateMutability": "view",
      "type": "function"
    },
    {
      "inputs": [
        {
          "internalType": "uint256",
          "name": "_reportId",
          "type": "uint256"
        }
      ],
      "name": "getComments",
      "outputs": [
        {
          "components": [
            {
              "internalType": "uint256",
              "name": "id",
              "type": "uint256"
            },
            {
              "internalType": "uint256",
              "name": "reportId",
              "type": "uint256"
            },
            {
              "internalType": "address",
              "name": "author",
              "type": "address"
            },
            {
              "internalType": "string",
              "name": "content",
              "type": "string"
            },
            {
              "internalType": "uint256",
              "name": "timestamp",
              "type": "uint256"
            },
            {
              "internalType": "bool",
              "name": "hidden",
              "type": "bool"
            }
          ],
          "internalType": "struct Report.Comment[]",
          "name": "",
          "type": "tuple[]"
        }
      ],
      "stateMutability": "view",
      "type": "function"
    },
    {
      "inputs": [],
      "name": "getPublicReports",
      "outputs": [
        {
          "components": [
            {
              "internalType": "uint256",
              "name": "id",
              "type": "uint256"
            },
            {
              "internalType": "address",
              "name": "reporter",
              "type": "address"
            },
            {
              "internalType": "string",
              "name": "ipfsHash",
              "type": "string"
            },
            {
              "internalType": "string",
              "name": "category",
              "type": "string"
            },
            {
              "internalType": "enum Report.ReportStatus",
              "name": "status",
              "type": "uint8"
            },
            {
              "internalType": "uint256",
              "name": "timestamp",
              "type": "uint256"
            },
            {
              "internalType": "bytes32",
              "name": "trackingCode",
              "type": "bytes32"
            }
          ],
          "internalType": "struct Report.ReportData[]",
          "name": "",
          "type": "tuple[]"
        }
      ],
      "stateMutability": "view",
      "type": "function"
    },
    {
      "inputs": [
        {
          "internalType": "bytes32",
          "name": "_trackingCode",
          "type": "bytes32"
        }
      ],
      "name": "getReportByCode",
      "outputs": [
        {
          "internalType": "uint256",
          "name": "id",
          "type": "uint256"
        },
        {
          "internalType": "string",
          "name": "category",
          "type": "string"
        },
        {
          "internalType": "enum Report.ReportStatus",
          "name": "status",
          "type": "uint8"
        },
        {
          "internalType": "uint256",
          "name": "timestamp",
          "type": "uint256"
        }
      ],
      "stateMutability": "view",
      "type": "function"
    },
    {
      "inputs": [],
      "name": "getReportCount",
      "outputs": [
        {
          "internalType": "uint256",
          "name": "",
          "type": "uint256"
        }
      ],
      "stateMutability": "view",
      "type": "function"
    },
    {
      "inputs": [
        {
          "internalType": "uint256",
          "name": "_reportId",
          "type": "uint256"
        },
        {
          "internalType": "uint256",
          "name": "_commentIndex",
          "type": "uint256"
        }
      ],
      "name": "hideComment",
      "outputs": [],
      "stateMutability": "nonpayable",
      "type": "function"
    },
    {
      "inputs": [
        {
          "internalType": "string",
          "name": "_ipfsHash",
          "type": "string"
        },
        {
          "internalType": "string",
          "name": "_category",
          "type": "string"
        }
      ],
      "name": "submitReport",
      "outputs": [
        {
          "internalType": "bytes32",
          "name": "",
          "type": "bytes32"
        }
      ],
      "stateMutability": "nonpayable",
      "type": "function"
    },
    {
      "inputs": [],
      "name": "totalDonated",
      "outputs": [
        {
          "internalType": "uint256",
          "name": "",
          "type": "uint256"
        }
      ],
      "stateMutability": "view",
      "type": "function"
    },
    {
      "inputs": [
        {
          "internalType": "uint256",
          "name": "_reportId",
          "type": "uint256"
        },
        {
          "internalType": "uint256",
          "name": "_commentIndex",
          "type": "uint256"
        }
      ],
      "name": "unhideComment",
      "outputs": [],
      "stateMutability": "nonpayable",
      "type": "function"
    },
    {
      "inputs": [
        {
          "internalType": "uint256",
          "name": "_id",
          "type": "uint256"
        },
        {
          "internalType": "enum Report.ReportStatus",
          "name": "_newStatus",
          "type": "uint8"
        }
      ],
      "name": "updateStatus",
      "outputs": [],
      "stateMutability": "nonpayable",
      "type": "function"
    }
  ],
  "bytecode": "0x608060405234801561001057600080fd5b50336000806101000a81548173ffffffffffffffffffffffffffffffffffffffff021916908373ffffffffffffffffffffffffffffffffffffffff16021790555061302b806100606000396000f3fe6080604052600436106100dc5760003560e01c8063d2acceda1161007f578063f3d3ddfa11610059578063f3d3ddfa146102b3578063f851a440146102de578063fd249fe214610309578063ff18aae714610334576100dc565b8063d2acceda1461022c578063e0e62d1f14610269578063ed88c68e146102a9576100dc565b80633a1b3d31116100bb5780633a1b3d31146101865780636306186c146101af578063aa7e5683146101d8578063cad9642b14610201576100dc565b8062b37044146100e157806303926df91461010c57806323edf69714610149575b600080fd5b3480156100ed57600080fd5b506100f661035d565b6040516101039190611d6b565b60405180910390f35b34801561011857600080fd5b50610133600480360381019061012e9190611dc6565b610363565b6040516101409190612039565b60405180910390f35b34801561015557600080fd5b50610170600480360381019061016b9190611dc6565b6105d7565b60405161017d9190612039565b60405180910390f35b34801561019257600080fd5b506101ad60048036038101906101a89190612080565b6108d8565b005b3480156101bb57600080fd5b506101d660048036038101906101d191906120c0565b610af4565b005b3480156101e457600080fd5b506101ff60048036038101906101fa9190612235565b610cb8565b005b34801561020d57600080fd5b50610216610f52565b6040516102239190611d6b565b60405180910390f35b34801561023857600080fd5b50610253600480360381019061024e9190612291565b610f5c565b6040516102609190612322565b60405180910390f35b34801561027557600080fd5b50610290600480360381019061028b9190612369565b6111c3565b6040516102a09493929190612457565b60405180910390f35b6102b16112f9565b005b3480156102bf57600080fd5b506102c861140c565b6040516102d59190612626565b60405180910390f35b3480156102ea57600080fd5b506102f361173c565b6040516103009190612657565b60405180910390f35b34801561031557600080fd5b5061031e611760565b60405161032b9190612626565b60405180910390f35b34801561034057600080fd5b5061035b600480360381019061035691906120c0565b611ad8565b005b60035481565b606060008054906101000a900473ffffffffffffffffffffffffffffffffffffffff1673ffffffffffffffffffffffffffffffffffffffff163373ffffffffffffffffffffffffffffffffffffffff16146103f3576040517f08c379a00000000000000000000000000000000000000000000000000000000081526004016103ea906126be565b60405180910390fd5b8160008111801561040657506001548111155b610445576040517f08c379a000000000000000000000000000000000000000000000000000000000815260040161043c9061272a565b60405180910390fd5b60066000848152602001908152602001600020805480602002602001604051908101604052809291908181526020016000905b828210156105cb57838290600052602060002090600602016040518060c001604052908160008201548152602001600182015481526020016002820160009054906101000a900473ffffffffffffffffffffffffffffffffffffffff1673ffffffffffffffffffffffffffffffffffffffff1673ffffffffffffffffffffffffffffffffffffffff16815260200160038201805461051590612779565b80601f016020809104026020016040519081016040528092919081815260200182805461054190612779565b801561058e5780601f106105635761010080835404028352916020019161058e565b820191906000526020600020905b81548152906001019060200180831161057157829003601f168201915b50505050508152602001600482015481526020016005820160009054906101000a900460ff16151515158152505081526020019060010190610478565b50505050915050919050565b6060816000811180156105ec57506001548111155b61062b576040517f08c379a00000000000000000000000000000000000000000000000000000000081526004016106229061272a565b60405180910390fd5b60006006600085815260200190815260200160002090506000805b82805490508110156106a457828181548110610665576106646127aa565b5b906000526020600020906006020160050160009054906101000a900460ff1661069757818061069390612808565b9250505b8080600101915050610646565b5060008167ffffffffffffffff8111156106c1576106c061210a565b5b6040519080825280602002602001820160405280156106fa57816020015b6106e7611c9c565b8152602001906001900390816106df5790505b5090506000805b84805490508110156108ca578481815481106107205761071f6127aa565b5b906000526020600020906006020160050160009054906101000a900460ff166108bd57848181548110610756576107556127aa565b5b90600052602060002090600602016040518060c001604052908160008201548152602001600182015481526020016002820160009054906101000a900473ffffffffffffffffffffffffffffffffffffffff1673ffffffffffffffffffffffffffffffffffffffff1673ffffffffffffffffffffffffffffffffffffffff1681526020016003820180546107e990612779565b80601f016020809104026020016040519081016040528092919081815260200182805461081590612779565b80156108625780601f1061083757610100808354040283529160200191610862565b820191906000526020600020905b81548152906001019060200180831161084557829003601f168201915b50505050508152602001600482015481526020016005820160009054906101000a900460ff1615151515815250508383815181106108a3576108a26127aa565b5b602002602001018190525081806108b990612808565b9250505b8080600101915050610701565b508195505050505050919050565b60008054906101000a900473ffffffffffffffffffffffffffffffffffffffff1673ffffffffffffffffffffffffffffffffffffffff163373ffffffffffffffffffffffffffffffffffffffff1614610966576040517f08c379a000000000000000000000000000000000000000000000000000000000815260040161095d906126be565b60405180910390fd5b8160008111801561097957506001548111155b6109b8576040517f08c379a00000000000000000000000000000000000000000000000000000000081526004016109af9061272a565b60405180910390fd5b60006004600085815260200190815260200160002060040160009054906101000a900460ff169050600260038111156109f4576109f36123e0565b5b816003811115610a0757610a066123e0565b5b14158015610a395750600380811115610a2357610a226123e0565b5b816003811115610a3657610a356123e0565b5b14155b610a78576040517f08c379a0000000000000000000000000000000000000000000000000000000008152600401610a6f9061289c565b60405180910390fd5b826004600086815260200190815260200160002060040160006101000a81548160ff02191690836003811115610ab157610ab06123e0565b5b0217905550837f2da7b23ca63c1eb969eee5fae4acb98186abecf5358b0354a82a5183ebca6b2a84604051610ae691906128bc565b60405180910390a250505050565b60008054906101000a900473ffffffffffffffffffffffffffffffffffffffff1673ffffffffffffffffffffffffffffffffffffffff163373ffffffffffffffffffffffffffffffffffffffff1614610b82576040517f08c379a0000000000000000000000000000000000000000000000000000000008152600401610b79906126be565b60405180910390fd5b81600081118015610b9557506001548111155b610bd4576040517f08c379a0000000000000000000000000000000000000000000000000000000008152600401610bcb9061272a565b60405180910390fd5b60066000848152602001908152602001600020805490508210610c2c576040517f08c379a0000000000000000000000000000000000000000000000000000000008152600401610c2390612923565b60405180910390fd5b6000600660008581526020019081526020016000208381548110610c5357610c526127aa565b5b906000526020600020906006020160050160006101000a81548160ff021916908315150217905550827fd1c57f3e77a6058cd0020b0298fbaf5eccfd783b091426aa237a07691820c71683604051610cab9190611d6b565b60405180910390a2505050565b81600081118015610ccb57506001548111155b610d0a576040517f08c379a0000000000000000000000000000000000000000000000000000000008152600401610d019061272a565b60405180910390fd5b60026003811115610d1e57610d1d6123e0565b5b6004600085815260200190815260200160002060040160009054906101000a900460ff166003811115610d5457610d536123e0565b5b14610d94576040517f08c379a0000000000000000000000000000000000000000000000000000000008152600401610d8b906129b5565b60405180910390fd5b6000825111610dd8576040517f08c379a0000000000000000000000000000000000000000000000000000000008152600401610dcf90612a21565b60405180910390fd5b60026000815480929190610deb90612808565b9190505550600660008481526020019081526020016000206040518060c0016040528060025481526020018581526020013373ffffffffffffffffffffffffffffffffffffffff168152602001848152602001428152602001600015158152509080600181540180825580915050600190039060005260206000209060060201600090919091909150600082015181600001556020820151816001015560408201518160020160006101000a81548173ffffffffffffffffffffffffffffffffffffffff021916908373ffffffffffffffffffffffffffffffffffffffff1602179055506060820151816003019081610ee49190612bed565b506080820151816004015560a08201518160050160006101000a81548160ff0219169083151502179055505050827fdb54cde47150062529bc4f2e10c2493c8ae39bc079c9c24f9e365c135098d4bb60025433604051610f45929190612cbf565b60405180910390a2505050565b6000600154905090565b600080835111610fa1576040517f08c379a0000000000000000000000000000000000000000000000000000000008152600401610f9890612d34565b60405180910390fd5b6000825111610fe5576040517f08c379a0000000000000000000000000000000000000000000000000000000008152600401610fdc90612da0565b60405180910390fd5b60016000815480929190610ff890612808565b919050555060006001549050600033824260405160200161101b93929190612e29565b6040516020818303038152906040528051906020012090506040518060e001604052808381526020013373ffffffffffffffffffffffffffffffffffffffff168152602001868152602001858152602001600060038111156110805761107f6123e0565b5b815260200142815260200182815250600460008481526020019081526020016000206000820151816000015560208201518160010160006101000a81548173ffffffffffffffffffffffffffffffffffffffff021916908373ffffffffffffffffffffffffffffffffffffffff16021790555060408201518160020190816111089190612bed565b50606082015181600301908161111e9190612bed565b5060808201518160040160006101000a81548160ff0219169083600381111561114a576111496123e0565b5b021790555060a0820151816005015560c08201518160060155905050816005600083815260200190815260200160002081905550817f2568e861a4727199839b61282c5e53bcccd5be024ea6e806343ac035ef58332482336040516111b0929190612e66565b60405180910390a2809250505092915050565b6000606060008060006005600087815260200190815260200160002054905060008103611225576040517f08c379a000000000000000000000000000000000000000000000000000000000815260040161121c90612edb565b60405180910390fd5b60006004600083815260200190815260200160002090508060000154816003018260040160009054906101000a900460ff16836005015482805461126890612779565b80601f016020809104026020016040519081016040528092919081815260200182805461129490612779565b80156112e15780601f106112b6576101008083540402835291602001916112e1565b820191906000526020600020905b8154815290600101906020018083116112c457829003601f168201915b50505050509250955095509550955050509193509193565b6000341161133c576040517f08c379a000000000000000000000000000000000000000000000000000000000815260040161133390612f6d565b60405180910390fd5b346003600082825461134e9190612f8d565b9250508190555060008054906101000a900473ffffffffffffffffffffffffffffffffffffffff1673ffffffffffffffffffffffffffffffffffffffff166108fc349081150290604051600060405180830381858888f193505050501580156113bb573d6000803e3d6000fd5b503373ffffffffffffffffffffffffffffffffffffffff167f2a01595cddf097c90216094025db714da3f4e5bd8877b56ba86a24ecead8e543346040516114029190611d6b565b60405180910390a2565b606060008054906101000a900473ffffffffffffffffffffffffffffffffffffffff1673ffffffffffffffffffffffffffffffffffffffff163373ffffffffffffffffffffffffffffffffffffffff161461149c576040517f08c379a0000000000000000000000000000000000000000000000000000000008152600401611493906126be565b60405180910390fd5b600060015467ffffffffffffffff8111156114ba576114b961210a565b5b6040519080825280602002602001820160405280156114f357816020015b6114e0611cea565b8152602001906001900390816114d85790505b5090506000600190505b600154811161173457600460008281526020019081526020016000206040518060e0016040529081600082015481526020016001820160009054906101000a900473ffffffffffffffffffffffffffffffffffffffff1673ffffffffffffffffffffffffffffffffffffffff1673ffffffffffffffffffffffffffffffffffffffff16815260200160028201805461159490612779565b80601f01602080910402602001604051908101604052809291908181526020018280546115c090612779565b801561160d5780601f106115e25761010080835404028352916020019161160d565b820191906000526020600020905b8154815290600101906020018083116115f057829003601f168201915b5050505050815260200160038201805461162690612779565b80601f016020809104026020016040519081016040528092919081815260200182805461165290612779565b801561169f5780601f106116745761010080835404028352916020019161169f565b820191906000526020600020905b81548152906001019060200180831161168257829003601f168201915b505050505081526020016004820160009054906101000a900460ff1660038111156116cd576116cc6123e0565b5b60038111156116df576116de6123e0565b5b815260200160058201548152602001600682015481525050826001836117059190612fc1565b81518110611716576117156127aa565b5b6020026020010181905250808061172c90612808565b9150506114fd565b508091505090565b60008054906101000a900473ffffffffffffffffffffffffffffffffffffffff1681565b6060600080600190505b60015481116117e45760026003811115611787576117866123e0565b5b6004600083815260200190815260200160002060040160009054906101000a900460ff1660038111156117bd576117bc6123e0565b5b036117d15781806117cd90612808565b9250505b80806117dc90612808565b91505061176a565b5060008167ffffffffffffffff8111156118015761180061210a565b5b60405190808252806020026020018201604052801561183a57816020015b611827611cea565b81526020019060019003908161181f5790505b509050600080600190505b6001548111611ace5760026003811115611862576118616123e0565b5b6004600083815260200190815260200160002060040160009054906101000a900460ff166003811115611898576118976123e0565b5b03611abb57600460008281526020019081526020016000206040518060e0016040529081600082015481526020016001820160009054906101000a900473ffffffffffffffffffffffffffffffffffffffff1673ffffffffffffffffffffffffffffffffffffffff1673ffffffffffffffffffffffffffffffffffffffff16815260200160028201805461192b90612779565b80601f016020809104026020016040519081016040528092919081815260200182805461195790612779565b80156119a45780601f10611979576101008083540402835291602001916119a4565b820191906000526020600020905b81548152906001019060200180831161198757829003601f168201915b505050505081526020016003820180546119bd90612779565b80601f01602080910402602001604051908101604052809291908181526020018280546119e990612779565b8015611a365780601f10611a0b57610100808354040283529160200191611a36565b820191906000526020600020905b815481529060010190602001808311611a1957829003601f168201915b505050505081526020016004820160009054906101000a900460ff166003811115611a6457611a636123e0565b5b6003811115611a7657611a756123e0565b5b815260200160058201548152602001600682015481525050838381518110611aa157611aa06127aa565b5b60200260200101819052508180611ab790612808565b9250505b8080611ac690612808565b915050611845565b5081935050505090565b60008054906101000a900473ffffffffffffffffffffffffffffffffffffffff1673ffffffffffffffffffffffffffffffffffffffff163373ffffffffffffffffffffffffffffffffffffffff1614611b66576040517f08c379a0000000000000000000000000000000000000000000000000000000008152600401611b5d906126be565b60405180910390fd5b81600081118015611b7957506001548111155b611bb8576040517f08c379a0000000000000000000000000000000000000000000000000000000008152600401611baf9061272a565b60405180910390fd5b60066000848152602001908152602001600020805490508210611c10576040517f08c379a0000000000000000000000000000000000000000000000000000000008152600401611c0790612923565b60405180910390fd5b6001600660008581526020019081526020016000208381548110611c3757611c366127aa565b5b906000526020600020906006020160050160006101000a81548160ff021916908315150217905550827fa74162da233540e21116e0b56e4228060ec19ab01d369ff90fcc2082b524e2e483604051611c8f9190611d6b565b60405180910390a2505050565b6040518060c001604052806000815260200160008152602001600073ffffffffffffffffffffffffffffffffffffffff16815260200160608152602001600081526020016000151581525090565b6040518060e0016040528060008152602001600073ffffffffffffffffffffffffffffffffffffffff168152602001606081526020016060815260200160006003811115611d3b57611d3a6123e0565b5b815260200160008152602001600080191681525090565b6000819050919050565b611d6581611d52565b82525050565b6000602082019050611d806000830184611d5c565b92915050565b6000604051905090565b600080fd5b600080fd5b611da381611d52565b8114611dae57600080fd5b50565b600081359050611dc081611d9a565b92915050565b600060208284031215611ddc57611ddb611d90565b5b6000611dea84828501611db1565b91505092915050565b600081519050919050565b600082825260208201905092915050565b6000819050602082019050919050565b611e2881611d52565b82525050565b600073ffffffffffffffffffffffffffffffffffffffff82169050919050565b6000611e5982611e2e565b9050919050565b611e6981611e4e565b82525050565b600081519050919050565b600082825260208201905092915050565b60005b83811015611ea9578082015181840152602081019050611e8e565b60008484015250505050565b6000601f19601f8301169050919050565b6000611ed182611e6f565b611edb8185611e7a565b9350611eeb818560208601611e8b565b611ef481611eb5565b840191505092915050565b60008115159050919050565b611f1481611eff565b82525050565b600060c083016000830151611f326000860182611e1f565b506020830151611f456020860182611e1f565b506040830151611f586040860182611e60565b5060608301518482036060860152611f708282611ec6565b9150506080830151611f856080860182611e1f565b5060a0830151611f9860a0860182611f0b565b508091505092915050565b6000611faf8383611f1a565b905092915050565b6000602082019050919050565b6000611fcf82611df3565b611fd98185611dfe565b935083602082028501611feb85611e0f565b8060005b8581101561202757848403895281516120088582611fa3565b945061201383611fb7565b925060208a01995050600181019050611fef565b50829750879550505050505092915050565b600060208201905081810360008301526120538184611fc4565b905092915050565b6004811061206857600080fd5b50565b60008135905061207a8161205b565b92915050565b6000806040838503121561209757612096611d90565b5b60006120a585828601611db1565b92505060206120b68582860161206b565b9150509250929050565b600080604083850312156120d7576120d6611d90565b5b60006120e585828601611db1565b92505060206120f685828601611db1565b9150509250929050565b600080fd5b600080fd5b7f4e487b7100000000000000000000000000000000000000000000000000000000600052604160045260246000fd5b61214282611eb5565b810181811067ffffffffffffffff821117156121615761216061210a565b5b80604052505050565b6000612174611d86565b90506121808282612139565b919050565b600067ffffffffffffffff8211156121a05761219f61210a565b5b6121a982611eb5565b9050602081019050919050565b82818337600083830152505050565b60006121d86121d384612185565b61216a565b9050828152602081018484840111156121f4576121f3612105565b5b6121ff8482856121b6565b509392505050565b600082601f83011261221c5761221b612100565b5b813561222c8482602086016121c5565b91505092915050565b6000806040838503121561224c5761224b611d90565b5b600061225a85828601611db1565b925050602083013567ffffffffffffffff81111561227b5761227a611d95565b5b61228785828601612207565b9150509250929050565b600080604083850312156122a8576122a7611d90565b5b600083013567ffffffffffffffff8111156122c6576122c5611d95565b5b6122d285828601612207565b925050602083013567ffffffffffffffff8111156122f3576122f2611d95565b5b6122ff85828601612207565b9150509250929050565b6000819050919050565b61231c81612309565b82525050565b60006020820190506123376000830184612313565b92915050565b61234681612309565b811461235157600080fd5b50565b6000813590506123638161233d565b92915050565b60006020828403121561237f5761237e611d90565b5b600061238d84828501612354565b91505092915050565b600082825260208201905092915050565b60006123b282611e6f565b6123bc8185612396565b93506123cc818560208601611e8b565b6123d581611eb5565b840191505092915050565b7f4e487b7100000000000000000000000000000000000000000000000000000000600052602160045260246000fd5b600481106124205761241f6123e0565b5b50565b60008190506124318261240f565b919050565b600061244182612423565b9050919050565b61245181612436565b82525050565b600060808201905061246c6000830187611d5c565b818103602083015261247e81866123a7565b905061248d6040830185612448565b61249a6060830184611d5c565b95945050505050565b600081519050919050565b600082825260208201905092915050565b6000819050602082019050919050565b6124d881612436565b82525050565b6124e781612309565b82525050565b600060e0830160008301516125056000860182611e1f565b5060208301516125186020860182611e60565b50604083015184820360408601526125308282611ec6565b9150506060830151848203606086015261254a8282611ec6565b915050608083015161255f60808601826124cf565b5060a083015161257260a0860182611e1f565b5060c083015161258560c08601826124de565b508091505092915050565b600061259c83836124ed565b905092915050565b6000602082019050919050565b60006125bc826124a3565b6125c681856124ae565b9350836020820285016125d8856124bf565b8060005b8581101561261457848403895281516125f58582612590565b9450612600836125a4565b925060208a019950506001810190506125dc565b50829750879550505050505092915050565b6000602082019050818103600083015261264081846125b1565b905092915050565b61265181611e4e565b82525050565b600060208201905061266c6000830184612648565b92915050565b7f4f6e6c792061646d696e2063616e2063616c6c20746869730000000000000000600082015250565b60006126a8601883612396565b91506126b382612672565b602082019050919050565b600060208201905081810360008301526126d78161269b565b9050919050565b7f5265706f727420646f6573206e6f742065786973740000000000000000000000600082015250565b6000612714601583612396565b915061271f826126de565b602082019050919050565b6000602082019050818103600083015261274381612707565b9050919050565b7f4e487b7100000000000000000000000000000000000000000000000000000000600052602260045260246000fd5b6000600282049050600182168061279157607f821691505b6020821081036127a4576127a361274a565b5b50919050565b7f4e487b7100000000000000000000000000000000000000000000000000000000600052603260045260246000fd5b7f4e487b7100000000000000000000000000000000000000000000000000000000600052601160045260246000fd5b600061281382611d52565b91507fffffffffffffffffffffffffffffffffffffffffffffffffffffffffffffffff8203612845576128446127d9565b5b600182019050919050565b7f43616e6e6f74206368616e67652066696e616c20737461747573000000000000600082015250565b6000612886601a83612396565b915061289182612850565b602082019050919050565b600060208201905081810360008301526128b581612879565b9050919050565b60006020820190506128d16000830184612448565b92915050565b7f436f6d6d656e7420646f6573206e6f7420657869737400000000000000000000600082015250565b600061290d601683612396565b9150612918826128d7565b602082019050919050565b6000602082019050818103600083015261293c81612900565b9050919050565b7f43616e206f6e6c7920636f6d6d656e74206f6e207265736f6c7665642072657060008201527f6f72747300000000000000000000000000000000000000000000000000000000602082015250565b600061299f602483612396565b91506129aa82612943565b604082019050919050565b600060208201905081810360008301526129ce81612992565b9050919050565b7f436f6e74656e7420697320726571756972656400000000000000000000000000600082015250565b6000612a0b601383612396565b9150612a16826129d5565b602082019050919050565b60006020820190508181036000830152612a3a816129fe565b9050919050565b60008190508160005260206000209050919050565b60006020601f8301049050919050565b600082821b905092915050565b600060088302612aa37fffffffffffffffffffffffffffffffffffffffffffffffffffffffffffffffff82612a66565b612aad8683612a66565b95508019841693508086168417925050509392505050565b6000819050919050565b6000612aea612ae5612ae084611d52565b612ac5565b611d52565b9050919050565b6000819050919050565b612b0483612acf565b612b18612b1082612af1565b848454612a73565b825550505050565b600090565b612b2d612b20565b612b38818484612afb565b505050565b5b81811015612b5c57612b51600082612b25565b600181019050612b3e565b5050565b601f821115612ba157612b7281612a41565b612b7b84612a56565b81016020851015612b8a578190505b612b9e612b9685612a56565b830182612b3d565b50505b505050565b600082821c905092915050565b6000612bc460001984600802612ba6565b1980831691505092915050565b6000612bdd8383612bb3565b9150826002028217905092915050565b612bf682611e6f565b67ffffffffffffffff811115612c0f57612c0e61210a565b5b612c198254612779565b612c24828285612b60565b600060209050601f831160018114612c575760008415612c45578287015190505b612c4f8582612bd1565b865550612cb7565b601f198416612c6586612a41565b60005b82811015612c8d57848901518255600182019150602085019450602081019050612c68565b86831015612caa5784890151612ca6601f891682612bb3565b8355505b6001600288020188555050505b505050505050565b6000604082019050612cd46000830185611d5c565b612ce16020830184612648565b9392505050565b7f4950465320686173682069732072657175697265640000000000000000000000600082015250565b6000612d1e601583612396565b9150612d2982612ce8565b602082019050919050565b60006020820190508181036000830152612d4d81612d11565b9050919050565b7f43617465676f7279206973207265717569726564000000000000000000000000600082015250565b6000612d8a601483612396565b9150612d9582612d54565b602082019050919050565b60006020820190508181036000830152612db981612d7d565b9050919050565b60008160601b9050919050565b6000612dd882612dc0565b9050919050565b6000612dea82612dcd565b9050919050565b612e02612dfd82611e4e565b612ddf565b82525050565b6000819050919050565b612e23612e1e82611d52565b612e08565b82525050565b6000612e358286612df1565b601482019150612e458285612e12565b602082019150612e558284612e12565b602082019150819050949350505050565b6000604082019050612e7b6000830185612313565b612e886020830184612648565b9392505050565b7f496e76616c696420747261636b696e6720636f64650000000000000000000000600082015250565b6000612ec5601583612396565b9150612ed082612e8f565b602082019050919050565b60006020820190508181036000830152612ef481612eb8565b9050919050565b7f446f6e6174696f6e20616d6f756e74206d75737420626520677265617465722060008201527f7468616e20300000000000000000000000000000000000000000000000000000602082015250565b6000612f57602683612396565b9150612f6282612efb565b604082019050919050565b60006020820190508181036000830152612f8681612f4a565b9050919050565b6000612f9882611d52565b9150612fa383611d52565b9250828201905080821115612fbb57612fba6127d9565b5b92915050565b6000612fcc82611d52565b9150612fd783611d52565b9250828203905081811115612fef57612fee6127d9565b5b9291505056fea2646970667358221220a3f458a087dd540306c6c5a2a11f62123bdb2ea9b3a00377f4f019c4b4062cb464736f6c63430008180033",
  "linkReferences": {},
  "deployedLinkReferences": {}
}